:020000040800F2
:10000000700D0020A50100083B260008872100088C
:1000100039260008170B0008B92F0008000000005F
:10002000000000000000000000000000A52B0008F8
:10003000730B00080000000049290008A72B0008E6
:10004000BF010008BF010008BF010008BF01000890
:10005000BF010008BF010008BF010008BF01000880
:10006000BF010008BF010008BF010008BF01000870
:10007000BF010008BF010008190B0008250B00088C
:10008000310B00083D0B0008BF010008BF0100084C
:10009000BF010008BF010008BF010008BF01000840
:1000A000BF010008BF010008BF010008BF01000830
:1000B000BF010008BF01000800000000BF010008E8
:1000C000BF0100080000000000000000BF010008A0
:1000D00000000000A12F0008AD2F00080000000064
:1000E000BF010008BF010008BF01000800F002F8CE
:1000F00000F048F80AA090E8000C82448344AAF17A
:100100000107DA4501D100F03DF8AFF2090EBAE877
:100110000F0013F0010F18BFFB1A43F0010318473B
:10012000203A0000403A0000103A24BF78C878C155
:10013000FAD8520724BF30C830C144BF04680C60ED
:10014000704700000023002400250026103A28BF35
:1001500078C1FBD8520728BF30C148BF0B60704739
:10016000642900F08380002070471FB500F044FB35
:1001700004000020002103F075F8401C60601FBDE2
:1001800010B510BD00F084FC1146FFF7EEFF02F041
:100190002BFF00F0B0FC03B4FFF7F2FF03BC00F04C
:1001A000B3FC00000948804709480047FEE7FEE726
:1001B000FEE7FEE7FEE7FEE7FEE7FEE7FEE7FEE717
:1001C00004480549054A064B704700002B2C0008DF
:1001D000ED00000870070020700D0020700900205D
:1001E0007009002010B500F007FB001D10BD00BF16
:1001F000753000000FB41CB5074B06AA7B44694656
:100200000090059800F05FFB0020694600F06EFB4F
:100210001CBC5DF814FB0000ED06000070B5044640
:1002200085690068C10601D5302600E02026C00798
:1002300007D070BDD4E9012130469047206A401CA8
:1002400020626D1EF6D570BD70B5044685690078D4
:10025000C00707D170BDD4E9012120209047206A52
:10026000401C20626D1EF6D570BD00002DE9F041E6
:100270000646002410687529314616A510D0AFF344
:100280000080002802DA404213A507E031688A079F
:1002900001D512A502E0490704D511A5012401E00A
:1002A000AFF3008000210A2206F1240709E0B0FB29
:1002B000F2FCB0FBF2F302FB1C003030785418461D
:1002C000491C0028F3D123462A463046BDE8F041B8
:1002D00000F09ABA000000002D0000002B00000082
:1002E000200000002DE9F05F894604464FF0000A27
:1002F000DFF824B1FB44C0F820A02046E16888471D
:1003000000287DD0252806D0D4E901219047206A15
:10031000401C2062F1E700255F462046E1688847DF
:100320002028064607DB312E05D2B81910F8200C1C
:1003300008B10543F1E7A80701D525F00405C4F885
:100340001CA00027C4F818A02A2E09D0304602F0BD
:1003500044FE38B304EB8708303EC8F8186019E053
:1003600059F8041B204604EB87029161E168884735
:10037000012F064618D1E069002820DA25F0200573
:100380001DE0D8F8180000EB800006EB4000303884
:10039000C8F818002046E1688847064602F01DFEAE
:1003A0000028EED1012F0AD02E2E08D12046E16878
:1003B00088477F1C0646022F45F02005C4DBA06954
:1003C000002803DA404245F00105A061E80701D0AA
:1003D00025F01005A6B1A6F14100192802D8203653
:1003E00045F400654A463146204625604D46FFF7F4
:1003F000B7FE60B1012807D0ED1D25F0070000E031
:1004000007E000F1080978E705F1040975E73046CF
:100410007AE7206ABDE8F09F2838000070B50646EC
:1004200000F0EEF90468054630460A22002100F08B
:1004300062FA2C6070BD401ECAB210F8011F8A42D9
:1004400002D00029F9D10020704730B505460B468F
:100450002A4613F8014B12F8010B08B1A042F8D05C
:100460001CB1002802D06D1CF1E7284630BD032ADC
:1004700040F2308010F0030C00F0158011F8013BC1
:10048000BCF1020F624498BF11F801CB00F8013BA8
:1004900038BF11F8013BA2F1040298BF00F801CB6C
:1004A00038BF00F8013B11F0030300F02580083A43
:1004B000C0F0088051F8043B083A51F804CBA0E89A
:1004C0000810F5E7121D5CBF51F8043B40F8043BEF
:1004D000AFF30080D20724BF11F8013B11F801CB24
:1004E00048BF11F8012B24BF00F8013B00F801CBF5
:1004F00048BF00F8012B704710B5203AC0F00B80C0
:10050000B1E81850203AA0E81850B1E81850A0E817
:100510001850BFF4F5AF5FEA027C24BFB1E8185071
:10052000A0E8185044BF18C918C0BDE810405FEAE1
:10053000827C24BF51F8043B40F8043B08BF70475D
:10054000D20728BF31F8023B48BF11F8012B28BF62
:1005500020F8023B48BF00F8012B70474FF0000223
:100560000429C0F0128010F0030C00F01B80CCF1C5
:10057000040CBCF1020F18BF00F8012BA8BF20F833
:10058000022BA1EB0C0100F00DB85FEAC17C24BF87
:1005900000F8012B00F8012B48BF00F8012B704731
:1005A0004FF0000200B5134694469646203922BF0C
:1005B000A0E80C50A0E80C50B1F12001BFF4F7AF57
:1005C000090728BFA0E80C5048BF0CC05DF804EB39
:1005D000890028BF40F8042B08BF704748BF20F8A7
:1005E000022B11F0804F18BF00F8012B704710B597
:1005F000044610F0030F08BF11F0030F40F0158000
:100600004FF0013E121FC0F20E8051F8043BA3EBE5
:100610000E0C2CEA030C1CEACE1C08BF40F8043B6D
:10062000F0D0A1F1040102F10402521E08DB11F81E
:10063000013B002B00F8013BF7D11146FFF78EFF7D
:10064000204610BD10B503681C1404EB21449BB276
:1006500089B2194494FBF2F302FB134394FBF2F4C6
:1006600001EB034393FBF2F102FB113193FBF2F335
:1006700001E05B1E11440029FBDB016003EB044039
:1006800010BDF0B504464FF0FF3585B0006804900A
:1006900060680290A0680390E06801902069009073
:1006A000666906F18040B0F1004F7CD83C22002101
:1006B00004A8FFF7C7FF3C22014602A8FFF7C2FFCC
:1006C0001822014603A8FFF7BDFF411E40F2B552B4
:1006D00001A8FFF7B7FF0C22074668460021FFF785
:1006E000B1FF414B00EB8700304400267B4411E012
:1006F000511A01910099491C0229009102D00C293C
:1007000008D105E0810705D00199491C019101E05C
:10071000401C00960099019A595C9142E8DD0099CD
:10072000012906D11C2A04D1810702D00221CDE97A
:100730000016A0F146018B293CD2DDE900610022C0
:1007400002E09F5C521C3944B242FADB012E02DD0A
:10075000820700D0491E40F2B55340F26D16C21711
:1007600000EB927292105A4300F0030303FB06223F
:1007700083070A4400D1521E039E02EB4203049FEA
:1007800006EBC303029EC3EB031306EB8303174E72
:1007900033441E149BB2C6EB0616C3EB0313B6001C
:1007A00007EB830300E005E006EB134666F31F4307
:1007B000360C02D0284605B0F0BD80C4029E40C46D
:1007C000039E40C4019E761C44F80C6B009E44E9D5
:1007D00002600720521C92FBF0F600FB162084E812
:1007E00023001846E7E7000041340000A039CEFDA1
:1007F0007047704770470000004870472C07002082
:10080000004870470C0700202DE9F0470D46994637
:100810009246044600F124080168880604D5E06980
:1008200021F01001216000E00120A84201DD471BFA
:1008300000E00027A1697A1902EB0900081AA061FB
:100840002078C00602D42046FFF7E8FC002608E026
:10085000D4E901211AF806009047206A401C761C52
:1008600020624E45F4DB2078C0060AD52046FFF70B
:10087000D5FC06E0D4E9012130209047206A401CD5
:100880002062381EA7F10107F4DC07E0D4E901215A
:1008900018F805009047206A401C2062281EA5F128
:1008A0000105F3DC2046FFF7CFFC2078000602D5D7
:1008B0000220BDE8F0870120FBE7000001694A1C27
:1008C00002610878704700B58FB0CDE90131002191
:1008D000059105497944CDE9031011466846FFF7B3
:1008E00001FD0FB000BD0000E5FFFFFF0A6802F840
:1008F000010B0A6070472DE9F04791460F4680468C
:100900000446002614F8015B2DB1FFF76BFC00686C
:10091000405DC007F6D12B2D02D02D2D18D0641EBE
:100920004A463946204600F023F827B13968A142EB
:1009300001D1C7F800804FF0020471050BD5404289
:10094000002803DDFFF75CFF0460A007BDE8F08727
:1009500046F48066E4E70028F8DAFFF751FF046008
:100960006FF00040F2E70000004870470C070020DD
:100970002DE9F05F824615468B4600270AF10104F7
:10098000B9460078302801D09DB113E014F8010B6E
:100990000127782803D0582801D045B10AE00DB1CD
:1009A000102D07D1002714F8010B102502E00825AF
:1009B00000E00A250026B0460EE005FB080005FB16
:1009C00006F101271FFA80F801EB1046B6F5803FCB
:1009D00000D3B94614F8010B294600F07EF8002830
:1009E000EBDABBF1000F05D00FB1641E00E05446F6
:1009F000CBF80040B9F1000F06D0FFF701FF02214C
:100A00000160C81EBDE8F09F48EA0640FAE7000012
:100A10004FF0013C50F8042B51F8043B9A4221D18D
:100A2000A2EB0C03934313EACC1317D150F8042B19
:100A300051F8043B9A4215D1A2EB0C03934313EAFD
:100A4000CC130BD150F8042B51F8043B9A4209D136
:100A5000A2EB0C03934313EACC13DBD04FF000005E
:100A6000704700BFD01A01BAB1FA81F101F0180144
:100A700022FA01F0CB40C1F12001DBB2C0B2C01AB2
:100A80002CFA01F3D11A914311EAC311E6D1704750
:100A90007546FFF769FFAE4605006946534620F0EC
:100AA0000700854618B020B5FFF78AFBBDE8204057
:100AB0004FF000064FF000074FF000084FF0000B1A
:100AC00021F00701AC46ACE8C009ACE8C009ACE8CD
:100AD000C009ACE8C0098D4670473A2800D23038CA
:100AE00020F02002412A01D3A2F13700884201D32D
:100AF0004FF0FF30704710B50446AFF3008020463A
:100B0000BDE81040FFF747BB01491820ABBEFEE728
:100B1000260002007047FEE7014800F09DB8000083
:100B2000BC010020014800F097B8000078010020C7
:100B3000014800F091B8000000020020014800F0D8
:100B40008BB800004402002030B590F840500124DA
:100B5000AC40C56B6C60046863604368102B03682D
:100B600003D099600068C26030BD9A600068C160BF
:100B700030BD704772B6FEE710B590F82110002224
:100B8000022905D00421816380F82020012010BDB6
:100B900001680B6823F00E030B6001680B6823F0FB
:100BA00001030B6090F84030C46B012101FA03F39C
:100BB000636080F8211080F82020104610BD0000EE
:100BC00010B590F821100024022903D0042181637C
:100BD00001243DE001680A6822F00E020A60016803
:100BE0000A6822F001020A601A4A0168914201D1A2
:100BF000012121E0174A1432914201D110211BE05A
:100C0000144A2832914201D1891515E0114A3C322B
:100C1000914201D189140FE00E4A5032914202D123
:100C20004FF4803108E00B4A6432914202D14FF414
:100C3000801101E04FF08071064A083A51600121AD
:100C400080F82110002180F82010416B01B1884705
:100C5000204610BD080002402DE9F05FC16B0C6812
:100C600001680B68D0F840C0042202FA0CF2494D2A
:100C7000DFF824A1494E4A4FDFF828B1DFF828E118
:100C800022422CD05A072AD50A68920603D40A6851
:100C900022F004020A600168A94201D1042219E08D
:100CA000514501D1402215E0B14202D14FF480629A
:100CB00010E0B94202D14FF480420BE0594502D115
:100CC0004FF4802206E0714502D14FF4800201E02A
:100CD0004FF080622F4908394A60C16A3BE04FF00B
:100CE000020808FA0CF818EA040F4FF000094FF058
:100CF000010235D05FEA837832D50B689B0605D4B4
:100D00000B6823F00A030B6080F821200168A942D8
:100D100001D1022219E0514501D1202215E0B14252
:100D200002D14FF4007210E0B94202D14FF40052E8
:100D30000BE0594502D14FF4003206E0714502D173
:100D40004FF4001201E04FF00072124908394A6076
:100D500080F82090816A00291AD0BDE8F05F08472A
:100D6000082505FA0CF5254212D01B0710D50B6893
:100D700023F00E030B6090F84010C36B02FA01F1F0
:100D80005960826380F8212080F82090016BE2E7AF
:100D9000BDE8F09F080002401C0002403000024005
:100DA00044000240580002406C00024030B528B3B5
:100DB00008C8134914221944B1FBF2F18900C16338
:100DC00010498163022141771A6843F6F0718A4322
:100DD000D0E900142143D0E902452C4321430469A2
:100DE000214344692143846921431143196000214F
:100DF0004163012242770177084630BD012030BDB2
:100E0000F8FFFDBF0000024070B5044690F82000D6
:100E1000002501280CD0012084F8200094F82160DE
:100E20000020012E06D084F820000225284670BD3F
:100E3000022070BD022684F82160A0632068066845
:100E400026F0010606602046FFF77EFEE06A0028D5
:100E50002068016802D041F00E0106E021F0040193
:100E600001602068016841F00A01016020680168A2
:100E700041F001010160D9E770B5044600F0EEF8D9
:100E80000546601C02D004480078044400F0E6F8EF
:100E9000401BA042FAD370BD140000202DE9F84F8A
:100EA000DFF89C910024A9F1040B23460F2709F1D8
:100EB000040AABF1040EBBE00125A5402A40AA427A
:100EC00076D1DFF880C14E68A6EB0C0866452BD0C2
:100ED0000DDC032E34D005DC36B3012E19D0022EE2
:100EE0002FD11BE0112E16D0122E2AD119E0B8F501
:100EF000881F19D006DCB8F5803F15D0B8F5801FE3
:100F00001FD111E0B8F5001F0ED0B8F5041F18D19D
:100F10000AE0CB6815E0CB681B1D12E0CB680833F4
:100F20000FE0CB680C330CE08B682BB1012B4FF03A
:100F3000080303D0456104E0042302E0056100E0FA
:100F40000023FF2A01D8064601E000F104064FEA1B
:100F5000840501D9A5F12005D6F8008007FA05FC23
:100F600028EA0C0803FA05F548EA0508C6F80080E7
:100F70004D68ED005BD5344DAE6946F00106AE61BB
:100F8000AD6924F0030605F0010500952F4D06EB31
:100F9000050CDCF80850A607360F07FA06F825EA14
:100FA0000805DFF8AC80404503D14FF0000810E0A1
:100FB0003DE0DFF8A080404502D14FF0010808E095
:100FC000DFF89480404502D14FF0020801E04FF075
:100FD000030808FA06F848EA0508CCF808804D68C6
:100FE000D9F80060ED024D4601D5164300E0964366
:100FF0002E604D68DAF80060AD02554601D5164303
:1010000000E096432E604D68DBF80060AD035D465E
:1010100001D5164300E096432E604D68DEF800606F
:10102000ED03754601D5164300E096432E60641C1F
:101030000A6832FA04F57FF43FAFBDE8F88F00008C
:10104000080401400000111000100240000001409F
:1010500000080140000C0140001001400148806878
:10106000704700001400002070B5040025D094F8EB
:101070003D00002520B984F83C50204600F04EF990
:10108000242084F83D002068016821F001010160FE
:101090002068016841F4004101602068016821F482
:1010A0000041016000F064FB4D4A6168914201D843
:1010B0004C4900E04C49884201D2012070BD4B49A7
:1010C0002368B0FBF1F15E6826F03F060E435E60D8
:1010D0006368934206D94FF4967359434FF47A7379
:1010E000B1FBF3F12368491C1E6A26F03F06314329
:1010F00019626168914210D84900401EB0FBF1F2BC
:10110000521CC2F30B02042A01D2042022E0B0FBDD
:10111000F1F0401CC0F30B001CE0A268F2B301EB3D
:10112000C10303EB0116431EB3FBF6F35B1C43F450
:1011300080431B0549D092B301EBC10202EB0111C0
:10114000401EB0FBF1F0401CC0F30B0040F48040A7
:1011500040F400402168CA694CF6FF739A4310437B
:10116000C861D4E9071001432068026822F0C00278
:1011700011430160D4E9030101432068826848F209
:10118000FF339A4311438160D4E905010843216884
:10119000CA6822F0FF021043C86001E00EE016E0CA
:1011A0002068016841F0010101602564202084F875
:1011B0003D00256384F83E50002070BD01EB4106E0
:1011C000431EB3FBF6F35B1CB3E70120C2E701EB60
:1011D0004101401EB0FBF1F0401CC0F30B00B7E72B
:1011E000A086010080841E0000093D0040420F00DF
:1011F0002DE9F84F1F4690468A460446DDF82890B0
:10120000FFF72CFF054694F83D0020287FD11923D5
:10121000012240492046009501F048F8002876D187
:1012200094F83C00012872D0012084F83C0020682A
:101230000168C90703D1016841F00101016020681C
:10124000016821F400610160212084F83D00102034
:1012500084F83E0000262664C4F824806785608DEB
:1012600020852D48E0622B464A465146204600F034
:10127000A3FF90B9206841698069009036E02A4652
:101280004946204601F0B8F850B1206C042804D13A
:101290002068016841F4007101600120BDE8F88F09
:1012A000606A216800780861606A401C6062618D34
:1012B000491E6185218D491E89B2218522685369A5
:1012C000DB435B070BD451B100781061606A401CAE
:1012D0006062608D401E6085208D401E20852A46FC
:1012E0004946204600F0B6FF0028CED1208D0028C8
:1012F000C5D154F83D0B016841F400710160202014
:1013000004F81E09E67766770020C7E7FFE70220AA
:10131000C4E70000020010000000FFFF10B586B017
:101320000021009101910291039100680F498842C8
:101330001AD10F4CA06940F00800A061A06969466D
:1013400000F008000490C0200090122001900320BB
:1013500003900848FFF7A2FDE06940F40010E06147
:10136000E06900F40010049006B010BD0054004085
:1013700000100240000C01400248816802781144CC
:101380008160704714000020074810B5016841F0E3
:1013900010010160032000F075F80F2000F006F83E
:1013A00000F024F8002010BD0020024070B50D4D63
:1013B00004464FF47A712878B1FBF0F00A490968C5
:1013C000B1FBF0F000F03BFC48B9102C07D2002232
:1013D0002146501E00F036F800206C6070BD0120E0
:1013E00070BD000014000020200000200C4808B54B
:1013F000816941F001018161816901F00101009180
:10140000C16941F08051C161C06900F08050009015
:101410000448416821F0E06141F00071416008BD7D
:101420000010024000000140002809DB00F01F020C
:10143000012191404009800000F1E020C0F8001136
:1014400070470000F0B40E4B1B680C46C3F3022338
:10145000C3F10705042D00D90425191D072901D260
:10146000002300E0DB1E012606FA05F1491E21409B
:1014700099409E40761E16403143F0BC01F09DBD60
:101480000CED00E0064900F0070208684FF6FF0384
:10149000184040EA0220034A1043086070470000E9
:1014A0000CED00E00000FA050149012008627047D8
:1014B00000000E4210B501460020234C012922D025
:1014C000022939D010291DD161682268D20119D5AD
:1014D0001E48C1F38342C903805C0AD561681B4A78
:1014E000C1F34041921E515C194AB2FBF1F14843ED
:1014F00001E0184948436168490203D440000321D0
:10150000B0FBF1F010BD226AC2F30121012903D121
:10151000920701D5C80310BD022905D1626A92075E
:1015200002D549F6404010BD0329FCD1216889034A
:10153000F9D54FF2244010BD00F02AF96168C1F3DB
:101540008131491C4900DBE700100240F83A0008ED
:1015500000127A0000093D002DE9F84305460078A5
:10156000354CC00754D0E0690026C00008D4E069BB
:1015700040F08050E061E069012600F0805000906A
:101580002E480168C90512D40168804641F4807173
:101590000160FFF763FD074605E000BFFFF75EFD52
:1015A000C01B642823D8D8F80000C005F6D5206AEF
:1015B00010F4407021D0A98801F4407181421CD000
:1015C000206A1F49012220F440700A6000220A604C
:1015D0002062C00711D0FFF741FD074641F288386D
:1015E00008E000BFFFF73AFDC11B414502D90320C7
:1015F000BDE8F883206A8007F4D5206A696820F482
:101600004070084320621EB1E06920F08050E06124
:101610002878800705D56068A96820F44040084311
:1016200060602878C00605D56068E96820F480000D
:10163000084360600020DBE70010024000700040BB
:10164000400442422DE9F0470F46050061D0434E69
:10165000306800F00700B84209D2306820F0070077
:1016600038433060306800F00700B84251D1286834
:101670003B4C810712D5400703D5606840F4E06019
:1016800060602878000703D5606840F460506060AF
:101690006068A96820F0F000084360602878C007FF
:1016A00028D06868012810D02168022810D0890746
:1016B00000292EDA616821F0030101436160FFF720
:1016C000CDFC804641F288390DE021688903EFE7BF
:1016D0008901EDE7FFF7C2FCA0EB0801494502D9FB
:1016E0000320BDE8F0876068696800F00C00B0EB8B
:1016F000810FEFD1306800F00700B8420BD9306895
:1017000020F0070038433060306800F00700B8422E
:1017100001D00120E5E72878400705D56068E96831
:1017200020F4E060084360602878000706D5606810
:10173000296920F4605040EAC100606000F038F888
:101740006168084AC1F30311515CC840064908604A
:1017500006480068FFF72AFE0020C2E7002002408A
:1017600000100240083B0008200000201800002064
:101770000448054900684968044AC1F30221515CE4
:10178000C84070472000002000100240183B0008AD
:101790000448054900684968044AC1F3C221515C04
:1017A000C84070472000002000100240183B00088D
:1017B0000E4A51680E4801F00C03042B11D0082B7F
:1017C0000FD10C48C1F38343C903C05C0AD55168EB
:1017D000084AC1F34041921E515C054A5043B0FB98
:1017E000F1F0704704494843704700000010024080
:1017F00000127A00E63A000800093D002DE9F84F92
:10180000040070D02078C04DC00749D06868C0F38C
:101810008100012807D06868C0F38100022809D13F
:101820006868C00306D52868800339D56068002839
:10183000E7D035E06068B0F5803F0BD010B1B0F56F
:10184000A02F11D0286820F480302860286820F468
:10185000802002E0286840F480302860606890B101
:10186000FFF7FCFB06460AE0286840F48020286069
:10187000F0E700BFFFF7F2FB801B642873D82868ED
:101880008003F7D50CE0FFF7E9FB064605E000BF53
:10189000FFF7E4FB801B6428F0D828688003F7D4A6
:1018A00020789A4E80074FF001094FF0000839D593
:1018B000686810F00C0F07D06868C0F38100022838
:1018C00009D16868C00306D42868800714D5206948
:1018D000012808D110E02069B0B1C6F80090FFF7E8
:1018E000BDFB074605E00AE1FFF7B8FBC01B022875
:1018F000C4D828688007F7D52868616920F0F80007
:1019000040EAC10028600DE0C6F80080FFF7A6FBA2
:10191000074604E0FFF7A2FBC01B022823D8286873
:101920008007F7D4207800072CD57948A169D9B170
:10193000C0F80090FFF792FB074604E0FFF78EFB2C
:10194000C01B02280FD8686A8007F7D571484FF48A
:10195000FA510068B0FBF1F0009000BF0098411E02
:101960000091FAD20EE080E0C0F80080FFF776FB2D
:10197000074604E0FFF772FBC01B022875D8686AAF
:101980008007F7D42078400760D5E8690027C000B9
:1019900008D4E86940F08050E861E869012700F068
:1019A000805000905C480168C90513D401688346E3
:1019B00041F480710160FFF751FB824606E000BFF1
:1019C000FFF74CFBA0EB0A0064284ED8DBF80000C0
:1019D000C005F5D5E06801280AD008B1052813D064
:1019E000286A20F001002862286A20F0040002E042
:1019F000286A40F001002862E06841F2883B98B113
:101A0000FFF72CFB82460BE0286A40F004002862B6
:101A1000EEE700BFFFF722FBA0EB0A0159455AD8B9
:101A2000286A8007F6D50CE0FFF718FB824605E030
:101A3000FFF714FBA0EB0A0159454CD8286A800730
:101A4000F6D41FB1E86920F08050E861E06988B3FE
:101A50006968C1F38101022944D00228C6F8608078
:101A600004D0FFF7FBFA044638E034E0FFF7F6FA5B
:101A7000074604E0FFF7F2FAC01B02282BD82868BB
:101A80008001F7D4206AB0F5803F05D16868A1686D
:101A900020F4003008436860D4E90801084369680D
:101AA00021F4741108436860C6F86090FFF7D6FA15
:101AB000044606E025E000BFFFF7D0FA001B02282D
:101AC00009D828688001F7D51BE000BFFFF7C6FAE8
:101AD000001B022802D90320BDE8F88F2868800186
:101AE000F4D40EE00128F7D06868226A00F480314F
:101AF000914204D1616A00F47010884201D0012043
:101B0000EAE70020E8E7000000100240000042423F
:101B1000800442422000002000700040024850F83B
:101B2000210080B270470000006C0040024800EBCA
:101B3000810091B201607047006C004070B50400F4
:101B400003D0607C002610B105E0012070BD267432
:101B5000204600F03DF802206074204600F052F864
:101B6000042550BB204600F0F0FE30BB20684168E1
:101B700021F007014160A06820B11448016821F0FC
:101B8000010101601148001F0168A26821F4607121
:101B9000114301606068411C04D10120FFF78AFCF9
:101BA00058B1401E2268C0F303419160216880B2A1
:101BB000C860204600F0E4FE08B16574C5E7E6732E
:101BC00001206073A0736074002070BD306C004011
:101BD00008B50068084988420DD1FFF765FC074841
:101BE000C16941F00061C161C069054900F0006050
:101BF00000900120086008BD00280040001002404D
:101C00003C04424270B504000AD02068416821F0CB
:101C100008014160FFF722FA05464FF47A7608E0A2
:101C2000012070BDFFF71AFA401BB04201D9032012
:101C300070BD206840680007F4D5002070BD10B565
:101C4000401EB0F1807F01D3012010BD4FF0E02491
:101C500060610F21601701F0B0F90020A06107203A
:101C60002061002010BD38B5044690F842002028BD
:101C700001D0022038BD51B14AB1012020630020BB
:101C80006063204601F044F9216B012901D0012055
:101C900038BD21680A684968009121680C3151E813
:101CA000002F42F0100241E80023002BF5D138BD8F
:101CB00010B50068094A90420ED10948017001210F
:101CC0004170322207490848FFF7CDFF07480068F6
:101CD000016821F00401016010BD000000440040D3
:101CE000000000204C0000203001002000020020F5
:101CF00010B50068074988420AD1322206490748D0
:101D0000FFF7B1FF06480068016821F00401016097
:101D100010BD0000004400404C00002030010020B5
:101D200000020020F8B5016804460868CA684B69DB
:101D300010F00F0F4FF0000559D003F0010602F428
:101D40009077374365D0C10705D0D10503D5616CC5
:101D500041F001016164410705D5D90703D0616CE9
:101D600041F002016164810705D5D90703D0616C98
:101D700041F004016164010707D502F020013143FD
:101D800003D0616C41F008016164616C00293AD0B4
:101D9000800604D5900602D5204600F0FBFF20689F
:101DA0004069616CC0F38010090700D460B320461D
:101DB00000F0BBFF20684069400621D52068143040
:101DC00050E8001F21F0400140E80012002AF5D140
:101DD000E06BA8B16D494163E06BFEF7F1FE0028AE
:101DE00011D0E06B416B01B0BDE8F04008478306BD
:101DF0000FD593060DD52046BDE8F84000F0CABFC8
:101E00002046FFF775FFF8BD2046FFF771FF6564B8
:101E1000F8BD266B2023012E7CD1C6067AD5D606C6
:101E200078D508684868009048694FF00206400677
:101E300040D5E16B086840680004000CE8D0A28D32
:101E40008242E5D9E085886920282DD020680C30B1
:101E500050E8001F21F4807140E80012002AF5D1FB
:101E60002068143050E8001F21F0010140E8001202
:101E7000002AF5D12068143050E8001F21F04001FD
:101E800040E80012002AF5D184F84230256320682A
:101E90000C3050E8001F21F0100140E80012002A29
:101EA000F5D1E06BFEF768FE6663A08DE18D401A08
:101EB00081B22AE0A08DE18D401A81B2E08D002828
:101EC000A6D00029A4D022680C3252E8000F20F4DA
:101ED000907042E80007002FF5D12068143050E8D8
:101EE000002F22F0010240E80027002FF5D184F8EE
:101EF0004230256320680C3050E8002F22F0100299
:101F000040E80023002BF5D166632046FFF7D0FEA2
:101F1000F8BDFFE705062BD5150629D594F8410035
:101F20002128F5D1A068B0F5805F01D12069B0B15A
:101F3000206A411C2162216800784860E08C401EC4
:101F40000004000CE084E3D12068C16821F0800126
:101F5000C1602068C16841F04001C160D8E7206AD3
:101F60000088C0F308004860206A801C2062E5E712
:101F70004006CDD55006CBD5CA68204622F0400297
:101F8000CA6084F8413000F0FDF8C1E72D2C00084C
:101F900070B5040004D094F84100002510B106E0AB
:101FA000012070BD84F84050204600F023F8242022
:101FB00084F841002068C16821F40051C1602046C6
:101FC00000F04AFF2068016921F490410161206816
:101FD000416921F02A0141612068C16841F4005142
:101FE000C1606564202084F8410084F84200656384
:101FF000002070BD2DE9F04186B0002500950195C7
:10200000029503950446DFF860C103685748022132
:102010000322574F80264FF0100863454CD1836947
:1020200043F480438361836903F4804304938369A9
:1020300043F0040383618069039200F0040004907C
:102040000802CDE9000169463846FEF727FFF00097
:10205000CDE90005694638460295FEF71FFF464F59
:102060004448C7E90005C7E902563D617D61BD618D
:102070003846FD61FEF79AFE08B1FEF77BFDE76387
:102080007C623D4F3B4844371438C7E902563D61F6
:102090007D61BD61FD61C7E900083846FEF786FE37
:1020A00008B1FEF767FDA7630022114625207C6278
:1020B000FFF7C8F9252051E0DFF8C0C063454FD1D4
:1020C000C36943F40033C361C36903F40033049369
:1020D000836943F0040383618069039200F0040084
:1020E00004900420CDE9000169463846FEF7D6FE8B
:1020F0000820CDE90005694638460295FEF7CEFE78
:102100001D4F1C4888371430C7E90005C7E902563F
:102110003D617D61BD613846FD61FEF747FE08B156
:10212000FEF728FDE7637C62134F1248CC37283056
:10213000C7E902563D617D61BD61FD61C7E90008E7
:102140003846FEF733FE08B1FEF714FDA763002200
:10215000114626207C62FFF775F92620FFF764F907
:1021600006B0BDE8F08100000038014000100240D8
:10217000000801405800024078010020004400405F
:10218000704770477047FEE701684A69D2435205BD
:102190000FD46FF480624A61002140F8301F202282
:1021A00042738173026942F00402026101730120EB
:1021B0007047002070470000F8B50446C06A1E460C
:1021C0000D461746082807D0012805D010F5803F96
:1021D00002D0206B122804D12068016841F480717C
:1021E0000160134600224FF001112046009600F0D6
:1021F0005DF840B120680068C00502D54FF400705A
:1022000020640320F8BD2069B0F5804F0ED0062071
:10221000216800EAD51040F0F000086133463A46E4
:102220000B49204600F08AF878B902E005F0FE007C
:1022300000E0E8B221680861054933463A46891F43
:10224000204600F07BF80028DCD00120F8BD00001B
:102250000800010070B516460D4604461EE02046F3
:10226000FFF792FF08B1012070BD681C16D0FEF781
:10227000F5FE801BA84200D885B920684069C0439C
:1022800040070BD5002044F8300F20216173A07364
:10229000216941F0200121612073E4E72068406951
:1022A000C0434007DBD4002070BD00002DE9F0479B
:1022B000984617460D460446C1F30746DDF82090C0
:1022C0002AE000BFB8F1FF3F26D0FEF7C7FEA0EB23
:1022D0000901414502D8B8F1000F1DD12068012E37
:1022E00016D0806925EA00000004000C12D00020FE
:1022F000B84211D1002044F8300F20216173A0733F
:10230000216941F02001216120730120BDE8F0879F
:102310004069E7E70120EBE72068012E0AD08069D9
:1023200025EA00000004000C06D00020B842C9D005
:102330000020EBE74069F3E70120F7E72DE9F047DC
:10234000984616460D4604464FF000094FF0200A05
:10235000C1F3074723E020684069C043400515D416
:102360002068016841F40071016021686FF48060A9
:102370004861C4F8309084F83DA084F83E90216C08
:1023800041F00401216484F83C9021E0701C06D0E7
:10239000FEF764FEA0EB0800B04203D816B1012F8F
:1023A0001FD021E02068012F15D0806925EA0000A8
:1023B0000004000C18D000BF44F8309F84F80DA032
:1023C00084F80E90216941F02001216184F80C907D
:1023D0000120BDE8F087406925EA00000004000CF8
:1023E000EAD12068406901E02068806925EA0000A0
:1023F0000004000CAFD1ECE770B516460D4604465C
:102400001EE02046FFF7C0FE08B1012070BD681C29
:1024100016D0FEF723FE801BA84200D885B920689D
:102420004069C04300060BD5002044F8300F20213E
:102430006173A073216941F0200121612073E4E7F9
:1024400020684069C0430006DBD4002070BD000056
:1024500010B58CB001210E48FFF760FB42F2333417
:10246000A04212D00A48FFF769FB08B1FEF782FBD1
:102470002C2208496846FEF73FF8684600F00CF841
:10248000224601210248FFF751FB0CB010BD0000AD
:10249000D4000020B83A000810B5FEF7F2F8014663
:1024A000BDE81040014800F045BB0000D40000200A
:1024B000154808B5416941F00101416140690022B8
:1024C00000F00100009011460E20FEF7BBFF0E2029
:1024D000FEF7AAFF002211460F20FEF7B3FF0F20E0
:1024E000FEF7A2FF002211461020FEF7ABFF1020DE
:1024F000FEF79AFF002211461120FEF7A3FFBDE868
:1025000008401120FEF790BF00100240114808B5A6
:10251000816941F010018161816901F01001009130
:10252000816941F020018161816901F02001009100
:10253000816941F004018161816901F00401009128
:10254000816941F008018161806900F00800009014
:1025500008BD0000001002400D4810B50B49016095
:102560000C49416000214FF480428160C0E90312B0
:1025700041618161C1610162FEF776FD002803D0EF
:10258000BDE81040FEF7F6BA10BD00000054004050
:1025900080000020A08601000A4810B508490160AB
:1025A0004FF0FF3141604FF480718160FFF7C6FA50
:1025B000002803D0BDE81040FEF7DCBA10BD0000D3
:1025C00000280040D40000200C4810B50A490160E2
:1025D0004FF4E1314160002181600C22C160C0E90B
:1025E00004128161C161FFF7D3FC002803D0BDE86C
:1025F0001040FEF7BFBA10BD00380140E8000020CF
:102600000C4810B50A4901604FF4E13141600021E6
:1026100081600C22C160C0E904128161C161FFF7D1
:10262000B7FC002803D0BDE81040FEF7A3BA10BDE8
:102630000044004030010020FEE7FEE710B5AE2068
:1026400000F096F8202000F093F8102000F090F8A9
:10265000B02000F08DF8C82000F08AF8002000F0CB
:1026600087F8102000F084F8402000F081F88120E5
:1026700000F07EF8DF2000F07BF8A12000F078F871
:10268000A62000F075F8A82000F072F83F2000F0B6
:102690006FF8A42000F06CF8D32000F069F8002057
:1026A00000F066F8D52000F063F8F02000F060F844
:1026B000D92000F05DF8222000F05AF8DA2000F06E
:1026C00057F8122000F054F8DB2000F051F82020D9
:1026D00000F04EF88D2000F04BF8142000F048F880
:1026E00000F008F800F00CF9BDE81040AF2000F051
:1026F0003FB800004FF480610148FDF72FBF000094
:10270000090300203CB51C78059D203ACDE9004521
:102710005D68E41D5B78E408544303FB045200F059
:1027200087F83CBD2DE9F8411E461546884604460B
:10273000079F09E03346414620460097FFF7E2FF36
:1027400070786D1C2044C4B22A78002AF2D1BDE80A
:10275000F881000008B54FF0FF3200920B460246A8
:1027600078210248FEF744FD08BD000080000020EB
:102770000249487002210148FFF7ECBF1000002019
:102780002DE9FC4180460720CDE9000301F0070454
:10279000CD08164602FA04F01F46C2B2234641464F
:1027A000284600F089F8002C0CD0601EC0B2CDE99C
:1027B0000007C4F1080026FA00F2681C0023414615
:1027C00000F07AF8BDE8FC812DE9FC4301F0070632
:1027D0001446CD089846814601F0070106EB080231
:1027E00004FA01F0099F082A16D90721CDE900173C
:1027F000C2B233464946284600F05EF808EB0600B0
:102800000938C0B2CDE90007C6F1080024FA00F289
:10281000681C0023494607E0521ED1B2CDE90017DB
:10282000C2B233464946284600F046F8BDE8FC836C
:102830002DE9FF4F82B01D460F989346C70800F060
:10284000070088460026019018E0029800240BEB50
:10285000060A00EB06090DE004FB05F0109B10F8DA
:102860000A2008EBC400C1B209F0FF00FFF788FF9F
:10287000641CE4B2BC42EFD3761CF6B2AE42E4D3A1
:102880000198002815D005FB07F6002408EBC707C0
:102890000DE010980090311902981BF80120204497
:1028A000F9B2C0B2019BFFF78FFF641CE4B2AC42E7
:1028B000EFD306B0BDE8F08FF0B50828DDE9056478
:1028C00019D2802917D20CB1D243D2B2FF25761C7F
:1028D00005FA06F6C3F10803084F46EA0204DD4094
:1028E00007EBC017044B785CB2432C43AA4320404B
:1028F0001A7010437854F0BD0E0000200903002028
:1029000070B5104D40200024287005F1810600BFED
:1029100004F1B000C0B2FFF72BFF0020FFF728FF43
:102920001020FFF725FF06EBC4118022681CFDF77D
:102930009EFD81210348FFF70DFF641CE4B2082CC3
:10294000E6D370BD88020020704770B50446FEF7DC
:1029500085FB05464FF47A7606E0FEF77FFB401BC9
:10296000B04201D9032070BD206840688006F4D5CC
:102970002068416841F010014160002070BD0000F6
:1029800070B504460068416821F010014160FEF70F
:1029900065FB05464FF47A7607E000BFFEF75EFB65
:1029A000401BB04201D9032070BD206840688006FA
:1029B000F4D5002070BD00002DE9FE4F054632A081
:1029C00007C88DE8070000F08DF8DFF8C8800746DB
:1029D000B0FBF8F4A86030480188A1422DD00480F3
:1029E00040F2B2764FF4B77A4FF4B6790CE0304645
:1029F00000F08CF820B1544508D3A4F5B77401E079
:102A0000A4F26D14761CB6B24C45F0D82E80002688
:102A1000E9460CE0288800F079F808B1012E2ED0A4
:102A200019F80600A04204D8241A761CB6B21C2C51
:102A3000F0D2761CAE70641CEC70B7FBF8F108FBAA
:102A400011704FF46161B0FBF1F26A71B0FBF1F209
:102A500001FB12033C22B3FBF2F3AB71B0FBF1F3C9
:102A600001FB1300B0FBF2F102FB1100E871EA7800
:102A7000A978288800F012F82871BDE8FE8F1D2C77
:102A8000D7D31D3CD1E700001F1C1F1E1F1E1F1F98
:102A90001E1F1E1F805101000C00002010B50329CD
:102AA00003D20C31401EC9B280B24B1C02EB410173
:102AB00003EB43030524B3FBF4F36422B0FBF2F20F
:102AC0001944014401EB9001891A4FF4C872B0FB1C
:102AD000F2F008440721401C90FBF1F201FB1200C8
:102AE000C0B210BD084908680B1D80B21A68096899
:102AF00092B289B2884203D0186861F31F407047D0
:102B000042EA00407047000018280040810705D1C4
:102B10006421B0FBF1F201FB120141B94FF4C8711D
:102B2000B0FBF1F201FB120008B100207047012058
:102B3000704700002DE9F0410F4604460025FEF7DE
:102B40008DFA06464FF47A7805E000BFFEF786FA64
:102B5000801B40451DD8206840688006F6D5206857
:102B6000416841F0100141602168380C886121689A
:102B7000B8B2C8612068416821F010014160FEF7D9
:102B80006DFA0646474606E0FEF768FA801BB84233
:102B900001D9012503E0206840688006F4D5284665
:102BA000BDE8F0817047FEF7E7BB70B594B028210F
:102BB0006846FDF7F5FC14210AA8FDF7F1FC002595
:102BC00001240F951195052012950090CDE902542E
:102BD00010954FF48030019002260494CDE90760EF
:102BE0004FF4E01009906846FEF708FE08B172B68F
:102BF000FEE70F20CDE90A064FF48060CDE90C50C6
:102C000002210AA80E95FEF71DFD08B172B6FEE777
:102C10004FF48070CDE90F400FA8FEF79DFC00280F
:102C200001D072B6FEE714B070BD704710B5406AAF
:102C30000021C185C184FFF75BF810BD70B5446AFF
:102C40002068406994F84110C0F3C0100025212984
:102C500004D118B1E584204600F08EF82068406960
:102C600094F84210C0F38010222904D118B1E585F0
:102C7000204600F05AF8606C40F010006064204676
:102C8000FFF736F870BD10B50146406A096809685B
:102C90004FF0000289062ED4C28501680C3151E83C
:102CA000003F23F4807341E80034002CF5D1016823
:102CB000143151E8003F23F0010341E80034002CB7
:102CC000F5D10168143151E8003F23F0400341E899
:102CD0000034002CF5D1202180F84210016B01292D
:102CE00009D101680C3151E8003F23F0100341E89D
:102CF0000034002CF5D14263016B012902D0FFF7AB
:102D00003FFA10BD818DFEF7D3FF10BD10B5406AAC
:102D100001214163016B012902D0FFF732FA10BD96
:102D2000818D4908FEF7C4FF10BD01680C3151E8E0
:102D3000002F22F4907241E80023002BF5D10168A6
:102D4000143151E8002F22F0010241E80023002B4A
:102D5000F5D1016B012909D101680C3151E8002F2F
:102D600022F0100241E80023002BF5D1202180F849
:102D7000421000210163704701680C3151E8002FB7
:102D800022F0C00241E80023002BF5D1202180F879
:102D90004110704708B590F84210222901D0022056
:102DA00008BD82684FF480539A4201D1016921B174
:102DB000816A9A421BD04AB10AE00268816A52686D
:102DC000C2F308020A80816A891C08E0026972B1B4
:102DD0000268526802F07F020A70816A491C8162AF
:102DE000C18D491E0904090CC18503D01BE002688E
:102DF0005268F1E70168CA6822F02002CA600168DF
:102E0000CA6822F48072CA6001684A6922F001022D
:102E10004A61202180F8421000214163026B012A9F
:102E200003D0FFF7ADF9002008BD016301680C3144
:102E300051E8002F22F0100241E80023002BF5D1C9
:102E400001680A68D20602D50A6849680091818D36
:102E5000FEF72EFFE7E7000070B504460068016941
:102E6000E26821F44051114301612169A0680843DF
:102E7000616908432168CA6841F20C639A430243BE
:102E8000CA6020684169A26921F44071114341611F
:102E90001E492068884202D1FEF77AFC01E0FEF765
:102EA00067FC00EBC00101EB001260686421800048
:102EB000B2FBF0F3B3FBF1F36FF018067343B2FB10
:102EC000F0F5B2FBF0F605EB8305322303EB0515B5
:102ED000B5FBF1F5B6FBF1F605F0F00505EB0615CF
:102EE000B2FBF0F6B2FBF0F0B0FBF1F06FF01802BD
:102EF000504306EB800003EB0010B0FBF1F02168BB
:102F000000F00F002844886070BD000000380140C8
:102F100038B581620446828500201346606422220F
:102F200084F84220E56B1B4AAA62E56B1A4AEA6202
:102F3000E56B1A4A2A63E26B50630A462168E06B2C
:102F4000091DFDF761FF2068016840680090206955
:102F500048B120680C3050E8001F41F4807140E80F
:102F60000012002AF5D12068143050E8001F41F00B
:102F7000010140E80012002AF5D12068143050E821
:102F8000001F41F0400140E80012002AF5D1002066
:102F900038BD0000872C00080D2D00083D2C0008CE
:102FA0000148FEF7BFBE0000E80000200148FEF720
:102FB000B9BE000030010020FEE70907090E002815
:102FC00004DB00F1E02080F80014704700F00F00EF
:102FD00000F1E02080F8141D704730380A2801D233
:102FE000012070470020704794B0FEF7CDF9FFF73D
:102FF000DCFDFFF78BFAFFF75BFAFFF7ADFAFFF79F
:10300000FFFAFFF7C9FAFFF7DFFA1420FDF734FFE4
:10301000FFF714FBFFF76EFBFFF71AFA3222324973
:103020003248FEF720FE32480068016821F00401B2
:103030000160304C00254FF47A7601A8FFF7BCFC04
:103040009DF80B0000909DF809209DF80A302AA1F8
:1030500004A8FDF7CFF89DF8070000909DF8063012
:10306000BDF8042028A10CA8FDF7C4F8607840B191
:103070001D4821781F4A45540832111F00F062F89C
:103080006570194824A128386268FDF7B3F816481E
:1030900026A11438A268FDF7ADF8FFF72BFB274BEC
:1030A0000CAA322114200095FFF73CFB244B04AA04
:1030B0001E2120200095FFF735FB0B4A00211F4BF6
:1030C000283A08460095FFF72DFB074A1B4B143A98
:1030D000142100200095FFF725FBFFF711FC304677
:1030E000FDF7CAFEA9E700004C00002030010020D7
:1030F0000002002000000020253032643A253032E2
:10310000643A25303264000025642D253032642D68
:10311000253032640000000054656D706572617482
:103120007572653A256420C2B043000048756D6928
:10313000646974793A25642025250000B8340008B4
:10314000B03A00082DE9FE430E464FF0FF313160E2
:103150001160154681463CA1FDF777F94FF0000854
:1031600030B30D3000E0401C01782029FBD03A2913
:10317000F9D00A29F7D0C9B2222925D1401C04462A
:10318000FDF759F9A0B1071B0A2F1DDA3A4621466F
:103190006846FDF72CFA0DF807806C460AE000BF80
:1031A000FDF720F80068C05D202802D0207820B10B
:1031B0000AE0641C2778002FF2D19DF8000018B1B6
:1031C0006846FDF72BF9306023A14846FDF73DF92D
:1031D000002831D00A3000E0401C01782029FBD0C3
:1031E0003A29F9D00A29F7D0C9B2222924D1401CA2
:1031F0000446FDF720F900281ED0061B0A2E1BDA14
:10320000324621466846FDF7F2F90DF806806C4615
:1032100015E000BFFCF7E6FF0068805D20280DD0B8
:103220002078002808D100BF9DF80000002803D0B6
:103230006846FDF7F3F82860BDE8FE83641C267835
:10324000002EE7D1F0E700002274656D70657261B1
:1032500074757265220000002268756D6964697476
:103260007922000010B500290AD00878002807D07C
:1032700005487844FDF7CCFB002801D0002010BDA4
:103280000248784410BD0000EE080000E608000087
:103290000000000000000000002F000000000700F8
:1032A000070000147F147F1400242A7F2A12006272
:1032B000640813230036495522500000050300001E
:1032C00000001C224100000041221C000014083EA6
:1032D00008140008083E0808000000A0600000086C
:1032E00008080808000060600000002010080402C0
:1032F000003E5149453E0000427F4000004261517E
:103300004946002141454B31001814127F10002717
:1033100045454539003C4A494930000171090503DA
:1033200000364949493600064949291E000036360B
:10333000000000005636000000081422410000146E
:10334000141414140000412214080002015109064B
:1033500000324959513E007C1211127C007F4949CC
:103360004936003E41414122007F4141221C007FFD
:1033700049494941007F09090901003E4149497A0B
:10338000007F0808087F0000417F41000020404185
:103390003F01007F08142241007F40404040007FF1
:1033A000020C027F007F0408107F003E4141413E35
:1033B000007F09090906003E4151215E007F09197D
:1033C00029460046494949310001017F0101003F7A
:1033D0004040403F001F2040201F003F4038403FFA
:1033E000006314081463000708700807006151495E
:1033F000454300007F41410000552A552A550000F1
:1034000041417F000004020102040040404040406E
:10341000000001020400002054545478007F484406
:10342000443800384444442000384444487F00383D
:103430005454541800087E0901020018A4A4A47C66
:10344000007F080404780000447D40000040808430
:103450007D00007F102844000000417F4000007C78
:1034600004180478007C0804047800384444443884
:1034700000FC242424180018242418FC007C0804D0
:10348000040800485454542000043F444020003CA9
:103490004040207C001C2040201C003C4030403C30
:1034A000004428102844001CA0A0A07C00446454C0
:1034B0004C4414141414141408060000903200082C
:1034C00000000000000000000000000000000000FC
:1034D000000000F800000000000000333000000091
:1034E00000100C06100C0600000000000000000098
:1034F00040C07840C0784000043F04043F0404000A
:10350000007088FC08300000001820FF211E000019
:10351000F008F000E018000000211C031E211E002E
:1035200000F00888700000001E21232419272110B4
:1035300010160E0000000000000000000000000057
:10354000000000E0180402000000000718204000FE
:1035500000020418E00000000040201807000000EE
:10356000404080F0804040000202010F0102020052
:10357000000000F0000000000101011F0101010036
:10358000000000000000000080B07000000000009B
:103590000000000000000000000101010101010124
:1035A00000000000000000000030300000000000BB
:1035B0000000000080601804006018060100000090
:1035C00000E010080810E000000F102020100F008D
:1035D000001010F8000000000020203F2020000014
:1035E000007008080888700000302824222130006C
:1035F00000300888884830000018202020110E0074
:103600000000C02010F8000000070424243F24001C
:1036100000F80888880808000019212020110E00F1
:1036200000E0108888180000000F112020110E0003
:1036300000380808C83808000000003F00000000FB
:103640000070880808887000001C222121221C00BC
:1036500000E010080810E0000000312222110F00E5
:10366000000000C0C000000000000030300000007A
:1036700000000080000000000000806000000000EA
:103680000000804020100800000102040810200003
:10369000404040404040400004040404040404004E
:1036A00000081020408000000020100804020100E3
:1036B000007048080808F0000000003036010000E3
:1036C000C030C828E810E0000718272423140B0096
:1036D0000000C038E0000000203C23020227382010
:1036E00008F8888888700000203F202020110E00F4
:1036F000C0300808080838000718202020100800EB
:1037000008F808080810E000203F202020100F00D3
:1037100008F88888E8081000203F2020232018009F
:1037200008F88888E8081000203F20000300000007
:10373000C03008080838000007182020221E0200A8
:1037400008F808000008F808203F210101213F2067
:10375000000808F8080800000020203F2020000092
:1037600000000808F8080800C08080807F00000082
:1037700008F888C028180800203F200126382000BB
:1037800008F8080000000000203F20202020300022
:1037900008F8F800F8F80800203F003F003F20003C
:1037A00008F830C00008F808203F200007183F0044
:1037B000E01008080810E0000F10202020100F0073
:1037C00008F808080808F000203F21010101000066
:1037D000E01008080810E0000F18242438504F00AB
:1037E00008F8888888887000203F2000030C30206B
:1037F00000708808080838000038202121221C00A9
:10380000180808F8080818000000203F20000000F1
:1038100008F808000008F808001F202020201F00DA
:103820000878880000C83808000007380E0100003A
:10383000F80800F80008F800033C0700073C030004
:10384000081868808068180820302C03032C30206A
:103850000838C800C83808000000203F20000000D9
:1038600010080808C8380800203826212020180031
:10387000000000FE020202000000007F4040400005
:10388000000C30C000000000000000010638C0003D
:1038900000020202FE000000004040407F000000E5
:1038A000000004020202040000000000000000000A
:1038B0000000000000000000808080808080808008
:1038C00000020204000000000000000000000000F0
:1038D00000008080808000000019242222223F20E6
:1038E00008F8008080000000003F112020110E0029
:1038F0000000008080800000000E112020201100B8
:10390000000000808088F800000E112020103F2069
:103910000000808080800000001F222222221300ED
:10392000008080F0888888180020203F2020000038
:103930000000808080808000006B949494936000ED
:1039400008F8008080800000203F210000203F20F8
:1039500000809898000000000020203F20200000F8
:10396000000000809898000000C08080807F0000E8
:1039700008F8000080808000203F24022D302000C5
:10398000000808F8000000000020203F2020000070
:103990008080808080808000203F20003F20003F8A
:1039A0008080008080800000203F210000203F2098
:1039B0000000808080800000001F202020201F0049
:1039C000808000808000000080FFA12020110E0078
:1039D0000000008080808000000E112020A0FF8069
:1039E000808080008080800020203F212000010016
:1039F000000080808080800000332424242419006B
:103A0000008080E0808000000000001F2020000077
:103A10008080000000808000001F202020103F20B8
:103A2000808080000080808000010E300806010048
:103A300080800080008080800F300C030C300F00ED
:103A400000808000808080000020312E0E31200018
:103A5000808080000080808080818E701806010048
:103A600000808080808080000021302C2221300066
:103A700000000000807C020200000000003F404087
:103A800000000000FF00000000000000FF00000038
:103A90000002027C800000000040403F0000000067
:103AA0000006010102020404000000000000000002
:103AB00010080000C03400080000000022000000D0
:103AC0000C00000017000000060000007D00000050
:103AD00000000000000000000000000000000000E6
:103AE00000000000010202030405060708090A0B92
:103AF0000C0D0E0F10100102020304050607080941
:103B00000A0B0C0D0E0F101000000000000000004A
:103B10000102030406070809000000000102030473
:103B20000400000800000000000000020001000086
:103B3000101F1D1F1E1F1E1F1F1E1F1E1F00000007
:103B4000703C00080000002024000000280100084C
:103B5000943C0008240000204C0D000044010008A3
:103B60001001000043000000F8FFFFFF004040404C
:103B70004040404040404141414141404040404040
:103B800040404040404040404040404040050202EC
:103B900002020202020202020202020202202020AB
:103BA0002020202020202002020202020202909007
:103BB0009090909010101010101010101010101005
:103BC0001010101010101010020202020202888859
:103BD0008888888808080808080808080808080865
:103BE000080808080808080802020202400000004D
:103BF00000000000000000000000000000000000C5
:103C000000000000000000000000000000000000B4
:103C100000000000000000000000000000000000A4
:103C20000000000000000000000000000000000094
:103C30000000000000000000000000000000000084
:103C40000000000000000000000000000000000074
:103C50000000000000000000000000000000000064
:103C60000000000000000000000000000000000054
:103C700000000000FFFFFFFFFFFFFFFF000000004C
:103C80000000000001000000100000000000000023
:043C900000127A00A4
:04000005080000ED02
:00000001FF
