:020000040800F2
:100000008806002001010008B71900082918000817
:10001000B5190008A1010008F91E00080000000041
:10002000000000000000000000000000271A000887
:10003000FF01000800000000B9190008291A000893
:100040001B0100081B0100081B0100081B01000820
:100050001B0100081B0100081B0100081B01000810
:100060001B0100081B0100081B0100081B01000800
:100070001B0100081B010008A5010008B1010008D0
:10008000BD010008C90100081B0100081B01000890
:100090001B0100081B0100081B0100081B010008D0
:1000A0001B0100081B0100081B0100081B010008C0
:1000B0001B0100081B010008000000001B010008D4
:1000C0001B01000800000000000000001B010008E8
:1000D00000000000E11E0008ED1E00080000000006
:1000E0001B0100081B0100081B010008DFF80CD0F1
:1000F00000F044F800480047492000088806002026
:100100000648804706480047FEE7FEE7FEE7FEE7B1
:10011000FEE7FEE7FEE7FEE7FEE7FEE7AD1A0008B2
:10012000ED00000840EA01039B0703D009E008C97D
:10013000121F08C0042AFAD203E011F8013B00F8AC
:10014000013B521EF9D27047D2B201E000F8012BF8
:10015000491EFBD270470022F6E710B513460A4647
:1001600004461946FFF7F0FF204610BD421C10F868
:10017000011B0029FBD1801A70470000064C074D77
:1001800006E0E06840F0010394E807009847103467
:10019000AC42F6D3FFF7AEFFB8210008D821000823
:1001A000FEE70000014800F09DB80000B801002003
:1001B000014800F097B8000074010020014800F0E9
:1001C00091B80000FC010020014800F08BB800004D
:1001D0004002002030B590F840500124AC40C56B7F
:1001E0006C60046863604368102B036803D09960F7
:1001F0000068C26030BD9A600068C16030BD704761
:1002000072B6FEE710B590F821100022022905D041
:100210000421816380F82020012010BD01680B6853
:1002200023F00E030B6001680B6823F001030B60E1
:1002300090F84030C46B012101FA03F3636080F849
:10024000211080F82020104610BD000010B590F855
:1002500021100024022903D00421816301243DE000
:1002600001680A6822F00E020A6001680A6822F03A
:1002700001020A601A4A0168914201D1012121E07C
:10028000174A1432914201D110211BE0144A28323E
:10029000914201D1891515E0114A3C32914201D1B8
:1002A00089140FE00E4A5032914202D14FF480314E
:1002B00008E00B4A6432914202D14FF4801101E010
:1002C0004FF08071064A083A5160012180F82110F0
:1002D000002180F82010416B01B18847204610BDF5
:1002E000080002402DE9F05FC16B0C6801680B68E3
:1002F000D0F840C0042202FA0CF2494DDFF824A1E4
:10030000494E4A4FDFF828B1DFF828E122422CD0CD
:100310005A072AD50A68920603D40A6822F0040212
:100320000A600168A94201D1042219E0514501D1B6
:10033000402215E0B14202D14FF4806210E0B94290
:1003400002D14FF480420BE0594502D14FF4802294
:1003500006E0714502D14FF4800201E04FF0806267
:100360002F4908394A60C16A3BE04FF0020808FA99
:100370000CF818EA040F4FF000094FF0010235D0D5
:100380005FEA837832D50B689B0605D40B6823F0AF
:100390000A030B6080F821200168A94201D10222E2
:1003A00019E0514501D1202215E0B14202D14FF4AC
:1003B000007210E0B94202D14FF400520BE05945EF
:1003C00002D14FF4003206E0714502D14FF4001221
:1003D00001E04FF00072124908394A6080F820901D
:1003E000816A00291AD0BDE8F05F0847082505FAA0
:1003F0000CF5254212D01B0710D50B6823F00E0315
:100400000B6090F84010C36B02FA01F159608263EF
:1004100080F8212080F82090016BE2E7BDE8F09F92
:10042000080002401C00024030000240440002402C
:10043000580002406C00024030B528B308C8134988
:1004400014221944B1FBF2F18900C16310498163A0
:10045000022141771A6843F6F0718A43D0E900140B
:100460002143D0E902452C432143046921434469D7
:100470002143846921431143196000214163012212
:1004800042770177084630BD012030BDF8FFFDBF3F
:100490000000024070B5044690F8200000250128B5
:1004A0000CD0012084F8200094F821600020012E57
:1004B00006D084F820000225284670BD022070BDB9
:1004C000022684F82160A0632068066826F00106F1
:1004D00006602046FFF77EFEE06A0028206801687B
:1004E00002D041F00E0106E021F004010160206815
:1004F000016841F00A0101602068016841F00101D2
:100500000160D9E770B5044600F0EEF80546601CBE
:1005100002D004480078044400F0E6F8401BA042F2
:10052000FAD370BD040000202DE9F84FDFF89C914C
:100530000024A9F1040B23460F2709F1040AABF1AB
:10054000040EBBE00125A5402A40AA4276D1DFF87F
:1005500080C14E68A6EB0C0866452BD00DDC032E3F
:1005600034D005DC36B3012E19D0022E2FD11BE07A
:10057000112E16D0122E2AD119E0B8F5881F19D0E5
:1005800006DCB8F5803F15D0B8F5801F1FD111E00B
:10059000B8F5001F0ED0B8F5041F18D10AE0CB68DB
:1005A00015E0CB681B1D12E0CB6808330FE0CB6869
:1005B0000C330CE08B682BB1012B4FF0080303D0F8
:1005C000456104E0042302E0056100E00023FF2A06
:1005D00001D8064601E000F104064FEA840501D97E
:1005E000A5F12005D6F8008007FA05FC28EA0C08DA
:1005F00003FA05F548EA0508C6F800804D68ED00E5
:100600005BD5344DAE6946F00106AE61AD6924F0AC
:10061000030605F0010500952F4D06EB050CDCF8EF
:100620000850A607360F07FA06F825EA0805DFF88E
:10063000AC80404503D14FF0000810E03DE0DFF80A
:10064000A080404502D14FF0010808E0DFF8948017
:10065000404502D14FF0020801E04FF0030808FACC
:1006600006F848EA0508CCF808804D68D9F800601B
:10067000ED024D4601D5164300E096432E604D68CD
:10068000DAF80060AD02554601D5164300E0964306
:100690002E604D68DBF80060AD035D4601D5164362
:1006A00000E096432E604D68DEF80060ED0375466D
:1006B00001D5164300E096432E60641C0A6832FAA6
:1006C00004F57FF43FAFBDE8F88F00000804014057
:1006D000000011100010024000000140000801401D
:1006E000000C014000100140014880687047000084
:1006F0000400002070B5040025D094F83D000025CA
:1007000020B984F83C50204600F0B8F8242084F842
:100710003D002068016821F0010101602068016846
:1007200041F4004101602068016821F4004101604A
:1007300000F0CEFA4D4A6168914201D84C4900E080
:100740004C49884201D2012070BD4B492368B0FB5F
:10075000F1F15E6826F03F060E435E6063689342E7
:1007600006D94FF4967359434FF47A73B1FBF3F102
:100770002368491C1E6A26F03F06314319626168EE
:10078000914210D84900401EB0FBF1F2521CC2F356
:100790000B02042A01D2042022E0B0FBF1F0401C3D
:1007A000C0F30B001CE0A268F2B301EBC10303EB42
:1007B0000116431EB3FBF6F35B1C43F480431B0599
:1007C00049D092B301EBC10202EB0111401EB0FB14
:1007D000F1F0401CC0F30B0040F4804040F40040B6
:1007E0002168CA694CF6FF739A431043C861D4E983
:1007F000071001432068026822F0C0021143016023
:10080000D4E9030101432068826848F2FF339A4328
:1008100011438160D4E9050108432168CA6822F0C8
:10082000FF021043C86001E00EE016E02068016896
:1008300041F0010101602564202084F83D0025631A
:1008400084F83E50002070BD01EB4106431EB3FB0F
:10085000F6F35B1CB3E70120C2E701EB4101401E48
:10086000B0FBF1F0401CC0F30B00B7E7A08601001D
:1008700080841E0000093D0040420F0010B586B084
:100880000021009101910291039100680F49884273
:100890001AD10F4CA06940F00800A061A069694618
:1008A00000F008000490C020009012200190032066
:1008B00003900848FFF738FEE06940F40010E0615B
:1008C000E06900F40010049006B010BD0054004030
:1008D00000100240000C0140024881680278114477
:1008E0008160704704000020074810B5016841F09E
:1008F00010010160032000F075F80F2000F006F8E9
:1009000000F024F8002010BD0020024070B50D4D0D
:1009100004464FF47A712878B1FBF0F00A4909686F
:10092000B1FBF0F000F02BFC48B9102C07D20022EC
:100930002146501E00F036F800206C6070BD01208A
:1009400070BD000004000020100000200C4808B515
:10095000816941F001018161816901F0010100912A
:10096000C16941F08051C161C06900F080500090C0
:100970000448416821F0E06141F00071416008BD28
:100980000010024000000140002809DB00F01F02B7
:10099000012191404009800000F1E020C0F80011E1
:1009A00070470000F0B40E4B1B680C46C3F30223E3
:1009B000C3F10705042D00D90425191D072901D20B
:1009C000002300E0DB1E012606FA05F1491E214046
:1009D00099409E40761E16403143F0BC01F09EBA0D
:1009E0000CED00E0064900F0070208684FF6FF032F
:1009F000184040EA0220034A104308607047000094
:100A00000CED00E00000FA05014901200862704782
:100A100000000E4210B501460020234C012922D0CF
:100A2000022939D010291DD161682268D20119D557
:100A30001E48C1F38342C903805C0AD561681B4A22
:100A4000C1F34041921E515C194AB2FBF1F1484397
:100A500001E0184948436168490203D4400003217A
:100A6000B0FBF1F010BD226AC2F30121012903D1CC
:100A7000920701D5C80310BD022905D1626A920709
:100A800002D549F6404010BD0329FCD121688903F5
:100A9000F9D54FF2244010BD00F02AF96168C1F386
:100AA0008131491C4900DBE7001002409021000819
:100AB00000127A0000093D002DE9F8430546007850
:100AC000354CC00754D0E0690026C00008D4E06966
:100AD00040F08050E061E069012600F08050009015
:100AE0002E480168C90512D40168804641F480711E
:100AF0000160FFF7F9FD074605E000BFFFF7F4FDD1
:100B0000C01B642823D8D8F80000C005F6D5206A99
:100B100010F4407021D0A98801F4407181421CD0AA
:100B2000206A1F49012220F440700A6000220A60F6
:100B30002062C00711D0FFF7D7FD074641F2883881
:100B400008E000BFFFF7D0FDC11B414502D90320DB
:100B5000BDE8F883206A8007F4D5206A696820F42C
:100B60004070084320621EB1E06920F08050E061CF
:100B70002878800705D56068A96820F440400843BC
:100B800060602878C00605D56068E96820F48000B8
:100B9000084360600020DBE7001002400070004066
:100BA000400442422DE9F0470F46050061D0434E14
:100BB000306800F00700B84209D2306820F0070022
:100BC00038433060306800F00700B84251D12868DF
:100BD0003B4C810712D5400703D5606840F4E060C4
:100BE00060602878000703D5606840F4605060605A
:100BF0006068A96820F0F000084360602878C007AA
:100C000028D06868012810D02168022810D08907F0
:100C100000292EDA616821F0030101436160FFF7CA
:100C200063FD804641F288390DE021688903EFE7D2
:100C30008901EDE7FFF758FDA0EB0801494502D90E
:100C40000320BDE8F0876068696800F00C00B0EB35
:100C5000810FEFD1306800F00700B8420BD930683F
:100C600020F0070038433060306800F00700B842D9
:100C700001D00120E5E72878400705D56068E968DC
:100C800020F4E060084360602878000706D56068BB
:100C9000296920F4605040EAC100606000F038F833
:100CA0006168084AC1F30311515CC84006490860F5
:100CB00006480068FFF72AFE0020C2E70020024035
:100CC00000100240A02100081000002008000020B1
:100CD0000448054900684968044AC1F30221515C8F
:100CE000C84070471000002000100240B0210008EA
:100CF0000448054900684968044AC1F3C221515CAF
:100D0000C84070471000002000100240B0210008C9
:100D10000E4A51680E4801F00C03042B11D0082B29
:100D20000FD10C48C1F38343C903C05C0AD5516895
:100D3000084AC1F34041921E515C054A5043B0FB42
:100D4000F1F070470449484370470000001002402A
:100D500000127A007E21000800093D002DE9F84FBD
:100D6000040070D02078C04DC00749D06868C0F337
:100D70008100012807D06868C0F38100022809D1EA
:100D80006868C00306D52868800339D560680028E4
:100D9000E7D035E06068B0F5803F0BD010B1B0F51A
:100DA000A02F11D0286820F480302860286820F413
:100DB000802002E0286840F480302860606890B1AC
:100DC000FFF792FC06460AE0286840F4802028607D
:100DD000F0E700BFFFF788FC801B642873D8286801
:100DE0008003F7D50CE0FFF77FFC064605E000BF67
:100DF000FFF77AFC801B6428F0D828688003F7D4BA
:100E000020789A4E80074FF001094FF0000839D53D
:100E1000686810F00C0F07D06868C0F381000228E2
:100E200009D16868C00306D42868800714D52069F2
:100E3000012808D110E02069B0B1C6F80090FFF792
:100E400053FC074605E00AE1FFF74EFCC01B0228F1
:100E5000C4D828688007F7D52868616920F0F800B1
:100E600040EAC10028600DE0C6F80080FFF73CFCB6
:100E7000074604E0FFF738FCC01B022823D8286887
:100E80008007F7D4207800072CD57948A169D9B11B
:100E9000C0F80090FFF728FC074604E0FFF724FCA9
:100EA000C01B02280FD8686A8007F7D571484FF435
:100EB000FA510068B0FBF1F0009000BF0098411EAD
:100EC0000091FAD20EE080E0C0F80080FFF70CFC41
:100ED000074604E0FFF708FCC01B022875D8686AC3
:100EE0008007F7D42078400760D5E8690027C00064
:100EF00008D4E86940F08050E861E869012700F013
:100F0000805000905C480168C90513D4016883468D
:100F100041F480710160FFF7E7FB824606E000BF05
:100F2000FFF7E2FBA0EB0A0064284ED8DBF80000D4
:100F3000C005F5D5E06801280AD008B1052813D00E
:100F4000286A20F001002862286A20F0040002E0EC
:100F5000286A40F001002862E06841F2883B98B1BD
:100F6000FFF7C2FB82460BE0286A40F004002862CB
:100F7000EEE700BFFFF7B8FBA0EB0A0159455AD8CE
:100F8000286A8007F6D50CE0FFF7AEFB824605E045
:100F9000FFF7AAFBA0EB0A0159454CD8286A800745
:100FA000F6D41FB1E86920F08050E861E06988B3A9
:100FB0006968C1F38101022944D00228C6F8608023
:100FC00004D0FFF791FB044638E034E0FFF78CFBD8
:100FD000074604E0FFF788FBC01B02282BD82868CF
:100FE0008001F7D4206AB0F5803F05D16868A16818
:100FF00020F4003008436860D4E9080108436968B8
:1010000021F4741108436860C6F86090FFF76CFB28
:10101000044606E025E000BFFFF766FB001B022840
:1010200009D828688001F7D51BE000BFFFF75CFBFB
:10103000001B022802D90320BDE8F88F2868800130
:10104000F4D40EE00128F7D06868226A00F48031F9
:10105000914204D1616A00F47010884201D00120ED
:10106000EAE70020E8E700000010024000004242EA
:1010700080044242100000200070004070B504005F
:1010800003D0607C002610B105E0012070BD2674FD
:10109000204600F03DF802206074204600F052F82F
:1010A000042550BB204600F088FC30BB2068416816
:1010B00021F007014160A06820B11448016821F0C7
:1010C000010101601148001F0168A26821F46071EC
:1010D000114301606068411C04D10120FFF79AFCB4
:1010E00058B1401E2268C0F303419160216880B26C
:1010F000C860204600F07CFC08B16574C5E7E67363
:1011000001206073A0736074002070BD306C0040DB
:1011100008B50068084988420DD1FFF775FC0748FB
:10112000C16941F00061C161C069054900F000601A
:1011300000900120086008BD002800400010024017
:101140003C04424270B504000AD02068416821F096
:1011500008014160FFF7C8FA05464FF47A7608E0C7
:10116000012070BDFFF7C0FA401BB04201D9032037
:1011700070BD206840680007F4D5002070BD10B530
:10118000401EB0F1807F01D3012010BD4FF0E0245C
:1011900060610F21601700F0C1FE0020A0610720F0
:1011A0002061002010BD38B5044690F84200202888
:1011B00001D0022038BD51B14AB101202063002086
:1011C0006063204600F00AFE216B012901D0012056
:1011D00038BD21680A684968009121680C3151E8DE
:1011E000002F42F0100241E80023002BF5D138BD5A
:1011F00010B5114C036811480122C9B2A34208D1AD
:101200000170827032220E490E48FFF7CCFF0E4863
:101210000BE00E4CA3420DD14170C270084932223E
:1012200032310B48FFF7BFFF0A480068016821F020
:101230000401016010BD00000038014000000020E2
:1012400018000020E4000020740100200044004049
:101250002C010020FC01002010B500680C498842D8
:1012600006D132220B490C48FFF79DFF0B4809E0DD
:101270000B4988420BD10749322232310948FFF726
:1012800092FF09480068016821F00401016010BD67
:101290000038014018000020E40000207401002004
:1012A000004400402C010020FC010020F8B501683A
:1012B00004460868CA684B6910F00F0F4FF000052C
:1012C00059D003F0010602F49077374365D0C10787
:1012D00005D0D10503D5616C41F00101616441077E
:1012E00005D5D90703D0616C41F002016164810723
:1012F00005D5D90703D0616C41F004016164010791
:1013000007D502F02001314303D0616C41F00801A0
:101310006164616C00293AD0800604D5900602D53C
:10132000204600F09EFC20684069616CC0F380108C
:10133000090700D460B3204600F05EFC20684069D5
:10134000400621D52068143050E8001F21F04001EC
:1013500040E80012002AF5D1E06BA8B16D49416365
:10136000E06BFEF773FF002811D0E06B416B01B01A
:10137000BDE8F040084783060FD593060DD52046FB
:10138000BDE8F84000F06DBC2046FFF765FFF8BDF2
:101390002046FFF761FF6564F8BD266B2023012E10
:1013A0007CD1C6067AD5D60678D5086848680090FC
:1013B00048694FF00206400640D5E16B0868406876
:1013C0000004000CE8D0A28D8242E5D9E08588694E
:1013D00020282DD020680C3050E8001F21F48071A7
:1013E00040E80012002AF5D12068143050E8001FB0
:1013F00021F0010140E80012002AF5D120681430E4
:1014000050E8001F21F0400140E80012002AF5D109
:1014100084F84230256320680C3050E8001F21F02A
:10142000100140E80012002AF5D1E06BFEF7EAFE59
:101430006663A08DE18D401A81B22AE0A08DE18D16
:10144000401A81B2E08D0028A6D00029A4D02268DD
:101450000C3252E8000F20F4907042E80007002F91
:10146000F5D12068143050E8002F22F0010240E846
:101470000027002FF5D184F84230256320680C3016
:1014800050E8002F22F0100240E80023002BF5D195
:1014900066632046FFF7ACFEF8BDFFE705062BD5D7
:1014A000150629D594F841002128F5D1A068B0F59A
:1014B000805F01D12069B0B1206A411C216221689E
:1014C00000784860E08C401E0004000CE084E3D10A
:1014D0002068C16821F08001C1602068C16841F0C6
:1014E0004001C160D8E7206A0088C0F30800486066
:1014F000206A801C2062E5E74006CDD55006CBD59A
:10150000CA68204622F04002CA6084F8413000F0E8
:1015100089F9C1E7AF1A000870B5040004D094F847
:101520004100002510B106E0012070BD84F8405054
:10153000204600F023F8242084F841002068C16888
:1015400021F40051C160204600F0ECFB20680169E5
:1015500021F4904101612068416921F02A01416133
:101560002068C16841F40051C1606564202084F89E
:10157000410084F842006563002070BD2DE9F04110
:1015800086B0002500950195029503950446DFF885
:1015900060C10368574802210322574F80264FF04D
:1015A000100863454CD1836943F4804383618369A8
:1015B00003F480430493836943F0040383618069E7
:1015C000039200F0040004900802CDE9000169468E
:1015D0003846FEF7A9FFF000CDE900056946384618
:1015E0000295FEF7A1FF464F4448C7E90005C7E949
:1015F00002563D617D61BD613846FD61FEF71CFF0D
:1016000008B1FEF7FDFDE7637C623D4F3B48443780
:101610001438C7E902563D617D61BD61FD61C7E9CE
:1016200000083846FEF708FF08B1FEF7E9FDA7639A
:101630000022114625207C62FFF7B4F9252051E0F5
:10164000DFF8C0C063454FD1C36943F40033C361C1
:10165000C36903F400330493836943F00403836193
:101660008069039200F0040004900420CDE9000199
:1016700069463846FEF758FF0820CDE9000569465F
:1016800038460295FEF750FF1D4F1C48883714302E
:10169000C7E90005C7E902563D617D61BD61384675
:1016A000FD61FEF7C9FE08B1FEF7AAFDE7637C62A3
:1016B000134F1248CC372830C7E902563D617D618F
:1016C000BD61FD61C7E900083846FEF7B5FE08B107
:1016D000FEF796FDA7630022114626207C62FFF7E5
:1016E00061F92620FFF750F906B0BDE8F08100004F
:1016F000003801400010024000080140580002403C
:101700007401002000440040704770472DE9F84301
:10171000044690F84100984616460D46202802D00F
:101720000220BDE8F88385B17EB1002060642120ED
:1017300084F84100FEF7D8FFA6848146E684A068BD
:101740002027B0F5805F02D003E00120E9E720699F
:1017500010B12E4600250EE000260CE08021204628
:1017600000F084FBA8B9C6B116F8010B21684860E7
:10177000E08C401EE084E08C4B464FF00002CDF838
:1017800000800028EAD14FF04001204600F06EFBB7
:1017900040B184F841700320C3E735F8020BC0F371
:1017A0000800E3E784F841700020BAE770B504460A
:1017B00090F84100202801D0022070BD49B342B307
:1017C0002162A284E28400206064212384F84130F5
:1017D000A56B114BAB62A56B104BEB62A56B104B6D
:1017E0002B63A36B5863256813462A1DA06BFEF775
:1017F00051FE21686FF0400008602068143050E806
:10180000001F41F0800140E80012002AF5D10020BD
:1018100070BD012070BD0000AD1B0008EF1B00086B
:10182000BF1A000870477047FEE70000154808B56A
:10183000416941F0010141614069002200F001006D
:10184000009011460E20FFF7ADF80E20FFF79CF830
:10185000002211460F20FFF7A5F80F20FFF794F89C
:10186000002211461020FFF79DF81020FFF78CF89A
:10187000002211461120FFF795F8BDE8084011201D
:10188000FFF782B800100240114808B5816941F0A5
:1018900010018161816901F010010091816941F0BD
:1018A00020018161816901F020010091816941F08D
:1018B00004018161816901F004010091816941F0B5
:1018C00008018161806900F00800009008BD0000F7
:1018D000001002400D4810B50B4901600C494160F1
:1018E00000214FF480428160C0E9031241618161AF
:1018F000C1610162FEF7FEFE002803D0BDE8104082
:10190000FEF77EBC10BD0000005400407C000020AB
:10191000A08601000A4810B5084901604FF0FF3168
:1019200041604FF480718160FFF7A8FB002803D06D
:10193000BDE81040FEF764BC10BD00000028004068
:10194000D00000200C4810B50A4901604FF4E13185
:101950004160002181600C22C160C0E904128161F4
:10196000C161FFF7D9FD002803D0BDE81040FEF7A4
:1019700047BC10BD00380140E40000200C4810B501
:101980000A4901604FF4E1314160002181600C227D
:10199000C160C0E904128161C161FFF7BDFD00288B
:1019A00003D0BDE81040FEF72BBC10BD0044004042
:1019B0002C010020FEE7FEE7704770B50446FEF7F5
:1019C00093FE05464FF47A7606E0FEF78DFE401B47
:1019D000B04201D9032070BD206840688006F4D56C
:1019E0002068416841F010014160002070BD000096
:1019F00070B504460068416821F010014160FEF7AF
:101A000073FE05464FF47A7607E000BFFEF76CFEE2
:101A1000401BB04201D9032070BD20684068800699
:101A2000F4D5002070BD7047FEF756BF70B594B076
:101A300028216846FEF78FFB14210AA8FEF78BFBCE
:101A4000002501240F951195052012950090CDE9F0
:101A5000025410954FF48030019002260494CDE991
:101A600007604FF4E01009906846FFF777F908B176
:101A700072B6FEE70F20CDE90A064FF48060CDE98B
:101A80000C5002210AA80E95FFF78CF808B172B627
:101A9000FEE74FF48070CDE90F400FA8FFF70CF878
:101AA000002801D072B6FEE714B070BD704710B5C3
:101AB000406A0021C185C184FFF7CEFB10BD70B51F
:101AC000446A2068406994F84110C0F3C0100025B2
:101AD000212904D118B1E584204600F0B4F820682B
:101AE000406994F84210C0F38010222904D118B143
:101AF000E585204600F080F8606C40F010006064DE
:101B00002046FFF7A9FB70BD10B50146406A096881
:101B100009684FF0000289062ED4C28501680C3195
:101B200051E8003F23F4807341E80034002CF5D1E4
:101B30000168143151E8003F23F0010341E800340B
:101B4000002CF5D10168143151E8003F23F0400327
:101B500041E80034002CF5D1202180F84210016BBF
:101B6000012909D101680C3151E8003F23F010032D
:101B700041E80034002CF5D14263016B012902D009
:101B8000FFF7C2FD10BD818DFFF732FB10BD10B510
:101B9000406A01214163016B012902D0FFF7B5FDC5
:101BA00010BD818D4908FFF723FB10BD10B501461C
:101BB000406A09680968890616D40021C184016851
:101BC000143151E8002F22F0800241E80023002B5D
:101BD000F5D101680C3151E8002F42F0400241E894
:101BE0000023002BF5D110BDFFF71CFE10BD10B572
:101BF000406AFFF718FE10BD01680C3151E8002F54
:101C000022F4907241E80023002BF5D101681431D1
:101C100051E8002F22F0010241E80023002BF5D10A
:101C2000016B012909D101680C3151E8002F22F024
:101C3000100241E80023002BF5D1202180F842104A
:101C400000210163704701680C3151E8002F22F038
:101C5000C00241E80023002BF5D1202180F841107B
:101C6000704708B590F84210222901D0022008BD23
:101C700082684FF480539A4201D1016921B1816A8F
:101C80009A421BD04AB10AE00268816A5268C2F3E4
:101C900008020A80816A891C08E0026972B1026840
:101CA000526802F07F020A70816A491C8162C18D0C
:101CB000491E0904090CC18503D01BE00268526863
:101CC000F1E70168CA6822F02002CA600168CA68A8
:101CD00022F48072CA6001684A6922F001024A61F6
:101CE000202180F8421000214163026B012A03D0B9
:101CF000FFF70AFD002008BD016301680C3151E8BF
:101D0000002F22F0100241E80023002BF5D10168DA
:101D10000A68D20602D50A6849680091818DFFF7EA
:101D200067FAE7E770B5044600680169E26821F4E4
:101D30004051114301612169A0680843616908436A
:101D40002168CA6841F20C639A430243CA60206862
:101D50004169A26921F44071114341611E49206823
:101D6000884202D1FEF7C4FF01E0FEF7B1FF00EBAD
:101D7000C00101EB0012606864218000B2FBF0F347
:101D8000B3FBF1F36FF018067343B2FBF0F5B2FB4F
:101D9000F0F605EB8305322303EB0515B5FBF1F5F2
:101DA000B6FBF1F605F0F00505EB0615B2FBF0F613
:101DB000B2FBF0F0B0FBF1F06FF01802504306EB0D
:101DC000800003EB0010B0FBF1F0216800F00F0081
:101DD0002844886070BD00000038014038B5816239
:101DE00004468285002013466064222284F8422043
:101DF000E56B1B4AAA62E56B1A4AEA62E56B1A4A6E
:101E00002A63E26B50630A462168E06B091DFEF706
:101E100041FB2068016840680090206948B1206853
:101E20000C3050E8001F41F4807140E80012002A95
:101E3000F5D12068143050E8001F41F0010140E85E
:101E40000012002AF5D12068143050E8001F41F03C
:101E5000400140E80012002AF5D1002038BD000002
:101E6000091B00088F1B0008BF1A00082DE9F84362
:101E7000984617460D460446089E24E0701C22D062
:101E8000FEF732FCA0EB0800B0421AD8CEB12068B1
:101E9000C168490717D5802D15D0402D13D0016892
:101EA000C94309070FD40168002540680090204607
:101EB000FFF7A2FE0820606484F840500120BDE8CE
:101EC000F8830320FBE72068006835EA000004D0AF
:101ED0000020B842D2D00020F1E70120F9E700004D
:101EE0000148FFF7E3B90000E40000200148FFF7D4
:101EF000DDB900002C010020FEE700000FB4054B07
:101F000010B503A9044A029800F027F810BC5DF848
:101F100014FB000031200008140000200907090EFE
:101F2000002804DB00F1E02080F80014704700F086
:101F30000F0000F1E02080F8141D704702E008C88F
:101F4000121F08C1002AFAD170477047002001E033
:101F500001C1121F002AFBD170472DE9F84F9946A5
:101F6000924688460546002706E025280AD05146B5
:101F70004A4690476D1C7F1C28780028F5D13846CA
:101F8000BDE8F88F002315F8011F18462E2915D13A
:101F900015F8011F04232A290DD06FF02F0229788C
:101FA000A1F13004092C09D800EB800002EB4000BD
:101FB00008446D1CF3E758F8040B6D1C2A78002ABE
:101FC000DDD0632A07D0732A0FD0104651464A4607
:101FD00090477F1C2AE018F8042B8DF80020002180
:101FE0008DF801106E46012103E058F8046B4FF0A4
:101FF000FF315A074FF0000401D409E0641C844209
:102000000BDA8C42FADB325D002AF7D105E0641C62
:102010008C42FCDB305D0028F9D1274404E016F83F
:10202000010B51464A469047641EF8D26D1CA3E747
:1020300013B54FF0FF33012269460248FFF766FBF4
:1020400000981CBDE400002086B0FEF74DFCFFF7B1
:10205000EDFCFFF719FCFFF7E9FBFFF73BFCFFF78F
:102060008DFCFFF757FCFFF76DFC32222249234815
:10207000FFF799F822480068016821F00401016027
:102080001D49322232311F48FFF78DF81E48006883
:10209000016821F00401016018221CA16846FEF7C6
:1020A00041F8154E1F4C002506F132074FF47A789F
:1020B0006846FEF75BF882B269461248FFF776FB86
:1020C000694619A0FFF71AFFA07830B120780A49B5
:1020D000355418A0FFF712FFA570E07838B160788A
:1020E00005493D5432311CA0FFF708FFE57040461A
:1020F000FEF708FADCE7000018000020E4000020EA
:10210000740100202C010020FC01002048656C6C4B
:102110006F2066726F6D2053544D33324631303329
:102120000D0A00000000002053656E743A202573EC
:102130000000000052656365697665642066726F11
:102140006D20455350333220285541525431293A9D
:102150002025730D0A000000526563656976656489
:102160002066726F6D2045535033322028554152FE
:102170005432293A2025730D0A000000010202039F
:102180000405060708090A0B0C0D0E0F10100102BA
:1021900002030405060708090A0B0C0D0E0F1010A8
:1021A0000000000000000000010203040607080907
:1021B0000000000001020304D821000800000020F4
:1021C000180000003C1F0008F02100081800002043
:1021D000700600004C1F0008000000000100000015
:1021E000100000000000000000127A000000000053
:04000005080000ED02
:00000001FF
