:020000040800F2
:10000000980B002091010008D31500084512000844
:10001000D1150008A3050008C31A0008000000005D
:10002000000000000000000000000000E3180008CD
:10003000A505000800000000E1180008E518000808
:10004000AB010008AB010008AB010008AB010008E0
:10005000AB010008AB010008AB010008AB010008D0
:10006000AB010008AB010008AB010008AB010008C0
:10007000AB010008AB010008AB010008AB010008B0
:10008000AB010008AB010008AB010008AB010008A0
:10009000AB010008AB010008AB010008AB01000890
:1000A000AB010008AB010008AB010008AB01000880
:1000B000AB010008AB01000800000000AB01000824
:1000C000AB0100080000000000000000AB010008C8
:1000D00000000000AB010008AB01000800000000B8
:1000E000AB010008AB010008AB01000800F002F80A
:1000F00000F03FF80AA090E8000C82448344AAF183
:100100000107DA4501D100F034F8AFF2090EBAE880
:100110000F0013F0010F18BFFB1A43F0010318473B
:10012000A01F0000C01F0000103A24BF78C878C18B
:10013000FAD8520724BF30C830C144BF04680C60ED
:10014000704700000023002400250026103A28BF35
:1001500078C1FBD8520728BF30C148BF0B60704739
:10016000732900F0AE81002070471FB51FBD10B588
:1001700010BD00F0DCF91146FFF7F7FF01F0B2FC0B
:1001800000F0FAF903B4FFF7F2FF03BC00F002FA43
:100190000948804709480047FEE7FEE7FEE7FEE71B
:1001A000FEE7FEE7FEE7FEE7FEE7FEE70448054957
:1001B000054A064B7047000047190008ED0000088B
:1001C00098050020980B0020980700209807002031
:1001D0000FB41CB5074B06AA7B44694600900598EE
:1001E00000F045F90020694600F054F91CBC5DF8A8
:1001F00014FB0000B90200002DE9F0410E46044650
:10020000002020622046E168884730B3252805D0C9
:10021000D4E901219047206A401CF2E7E1682046BA
:1002200000278847050018D0A5F14100192802D8F9
:1002300020354FF400673246294620462760FFF7F5
:100240008FFF40B1012804D0F61D26F007060836BE
:10025000D8E7361DD6E72846DAE7206ABDE8F08100
:1002600070B50C460546012A05D02878800600D5D1
:10027000EA69002302E0012305E05B1C934202D2FD
:10028000E05C0028F9D1A869E618C01AA861286ABC
:10029000184428622846AFF3008004E0D5E9012124
:1002A00014F8010B9047B442F8D32846AFF300800E
:1002B00070BD401ECAB210F8011F8A4202D0002948
:1002C000F9D10020704730B505460B462A4613F891
:1002D000014B12F8010B08B1A042F8D01CB1002864
:1002E00002D06D1CF1E7284630BD032A40F2308071
:1002F00010F0030C00F0158011F8013BBCF1020F67
:10030000624498BF11F801CB00F8013B38BF11F8E7
:10031000013BA2F1040298BF00F801CB38BF00F8FE
:10032000013B11F0030300F0D080083AC0F00880D0
:1003300051F8043B083A51F804CBA0E80810F5E75F
:10034000121D5CBF51F8043B40F8043BAFF3008042
:10035000D20724BF11F8013B11F801CB48BF11F8B7
:10036000012B24BF00F8013B00F801CB48BF00F887
:10037000012B70474FF000020429C0F0128010F0EA
:10038000030C00F01B80CCF1040CBCF1020F18BF71
:1003900000F8012BA8BF20F8022BA1EB0C0100F004
:1003A0000DB85FEAC17C24BF00F8012B00F8012BD7
:1003B00048BF00F8012B70474FF0000200B513460C
:1003C00094469646203922BFA0E80C50A0E80C5075
:1003D000B1F12001BFF4F7AF090728BFA0E80C5026
:1003E00048BF0CC05DF804EB890028BF40F8042B1F
:1003F00008BF704748BF20F8022B11F0804F18BF8C
:1004000000F8012B704710B5044610F0030F08BF29
:1004100011F0030F40F015804FF0013E121FC0F2A3
:100420000E8051F8043BA3EB0E0C2CEA030C1CEAE3
:10043000CE1C08BF40F8043BF0D0A1F1040102F14A
:100440000402521E08DB11F8013B002B00F8013BAF
:10045000F7D11146FFF78EFF204610BD7047704759
:100460007047000001694A1C02610878704700B5B6
:100470008FB0CDE901310021059105497944CDE9DD
:10048000031011466846FFF7B7FE0FB000BD00002D
:10049000E5FFFFFF0A6802F8010B0A60704710B51C
:1004A000436913B1AFF3008001E0FFF7D9FE0120EB
:1004B00010BD127800F124010A7000224A70012256
:1004C000EDE711684FF0FF32E9E710B5203AC0F0D0
:1004D0000B80B1E81850203AA0E81850B1E8185045
:1004E000A0E81850BFF4F5AF5FEA027C24BFB1E882
:1004F0001850A0E8185044BF18C918C0BDE81040F3
:100500005FEA827C24BF51F8043B40F8043B08BFFB
:100510007047D20728BF31F8023B48BF11F8012BC2
:1005200028BF20F8023B48BF00F8012B70477546F2
:1005300000F02CF8AE4605006946534620F007004F
:10054000854618B020B5FFF731FEBDE820404FF0DA
:1005500000064FF000074FF000084FF0000B21F0AD
:100560000701AC46ACE8C009ACE8C009ACE8C0097A
:10057000ACE8C0098D46704710B50446AFF3008063
:100580002046BDE81040FFF7FDBD00000048704761
:100590003405002001491820ABBEFEE7260002000A
:1005A0007047FEE7704772B6FEE7000070B504467C
:1005B00000F0EEF80546601C02D0044800780444C0
:1005C00000F0E6F8401BA042FAD370BD0400002002
:1005D0002DE9F84FDFF89C910024A9F1040B234684
:1005E0000F2709F1040AABF1040EBBE00125A54079
:1005F0002A40AA4276D1DFF880C14E68A6EB0C08EB
:1006000066452BD00DDC032E34D005DC36B3012E2D
:1006100019D0022E2FD11BE0112E16D0122E2AD166
:1006200019E0B8F5881F19D006DCB8F5803F15D061
:10063000B8F5801F1FD111E0B8F5001F0ED0B8F536
:10064000041F18D10AE0CB6815E0CB681B1D12E02F
:10065000CB6808330FE0CB680C330CE08B682BB110
:10066000012B4FF0080303D0456104E0042302E0AE
:10067000056100E00023FF2A01D8064601E000F1F1
:1006800004064FEA840501D9A5F12005D6F80080BB
:1006900007FA05FC28EA0C0803FA05F548EA0508FC
:1006A000C6F800804D68ED005BD5344DAE6946F06C
:1006B0000106AE61AD6924F0030605F00105009561
:1006C0002F4D06EB050CDCF80850A607360F07FA8D
:1006D00006F825EA0805DFF8AC80404503D14FF065
:1006E000000810E03DE0DFF8A080404502D14FF067
:1006F000010808E0DFF89480404502D14FF002087D
:1007000001E04FF0030808FA06F848EA0508CCF8BB
:1007100008804D68D9F80060ED024D4601D51643BA
:1007200000E096432E604D68DAF80060AD02554651
:1007300001D5164300E096432E604D68DBF800605B
:10074000AD035D4601D5164300E096432E604D682B
:10075000DEF80060ED03754601D5164300E09643D0
:100760002E60641C0A6832FA04F57FF43FAFBDE8DE
:10077000F88F000008040140000011100010024032
:100780000000014000080140000C01400010014041
:1007900001488068704700000400002070B5040024
:1007A00025D094F83D00002520B984F83C5020461F
:1007B00000F04EF9242084F83D002068016821F003
:1007C000010101602068016841F400410160206876
:1007D000016821F40041016000F088FA4D4A616827
:1007E000914201D84C4900E04C49884201D2012095
:1007F00070BD4B492368B0FBF1F15E6826F03F06FF
:100800000E435E606368934206D94FF49673594372
:100810004FF47A73B1FBF3F12368491C1E6A26F08A
:100820003F06314319626168914210D84900401E69
:10083000B0FBF1F2521CC2F30B02042A01D20420D5
:1008400022E0B0FBF1F0401CC0F30B001CE0A268FA
:10085000F2B301EBC10303EB0116431EB3FBF6F346
:100860005B1C43F480431B0549D092B301EBC102EA
:1008700002EB0111401EB0FBF1F0401CC0F30B0075
:1008800040F4804040F400402168CA694CF6FF7390
:100890009A431043C861D4E90710014320680268F5
:1008A00022F0C00211430160D4E903010143206832
:1008B000826848F2FF339A4311438160D4E905010D
:1008C00008432168CA6822F0FF021043C86001E0B3
:1008D0000EE016E02068016841F001010160256426
:1008E000202084F83D00256384F83E50002070BD30
:1008F00001EB4106431EB3FBF6F35B1CB3E701209B
:10090000C2E701EB4101401EB0FBF1F0401CC0F317
:100910000B00B7E7A086010080841E0000093D009F
:1009200040420F002DE9F84F1F4690468A46044684
:10093000DDF82890FFF72CFF054694F83D002028AD
:100940007FD11923012240492046009500F00CFD7B
:10095000002876D194F83C00012872D0012084F858
:100960003C0020680168C90703D1016841F001011A
:1009700001602068016821F400610160212084F891
:100980003D00102084F83E0000262664C4F8248030
:100990006785608D20852D48E0622B464A4651468A
:1009A000204600F067FC90B920684169806900909A
:1009B00036E02A464946204600F07CFD50B1206CC6
:1009C000042804D12068016841F40071016001200D
:1009D000BDE8F88F606A216800780861606A401C91
:1009E0006062618D491E6185218D491E89B2218514
:1009F00022685369DB435B070BD451B10078106167
:100A0000606A401C6062608D401E6085208D401EC3
:100A100020852A464946204600F07AFC0028CED19F
:100A2000208D0028C5D154F83D0B016841F40071B8
:100A30000160202004F81E09E67766770020C7E7EA
:100A4000FFE70220C4E70000020010000000FFFFE3
:100A500010B586B0002100910191029103910068C8
:100A60000F4988421AD10F4CA06940F00800A061DC
:100A7000A069694600F008000490C0200090122090
:100A80000190032003900848FFF7A2FDE06940F4BD
:100A90000010E061E06900F40010049006B010BDA1
:100AA0000054004000100240000C014002488168E0
:100AB000027811448160704704000020074810B597
:100AC000016841F010010160032000F067F80F2079
:100AD00000F006F800F024F8002010BD00200240CD
:100AE00070B50D4D04464FF47A712878B1FBF0F0E3
:100AF0000A490968B1FBF0F000F0CEFA48B9102CB1
:100B000007D200222146501E00F028F800206C6019
:100B100070BD012070BD0000040000201000002006
:100B20000C4808B5816941F001018161816901F0DA
:100B300001010091C16941F08051C161C06900F0BB
:100B4000805000900448416821F0E06141F000715C
:100B5000416008BD0010024000000140F0B40E4B9F
:100B60001B680C46C3F30223C3F10705042D00D90B
:100B70000425191D072901D2002300E0DB1E0126F0
:100B800006FA05F1491E214099409E40761E164006
:100B90003143F0BC00F096BF0CED00E0064900F0D8
:100BA000070208684FF6FF03184040EA0220034A94
:100BB00010430860704700000CED00E00000FA05EB
:100BC0002DE9F0470F46050061D0434E306800F034
:100BD0000700B84209D2306820F00700384330607F
:100BE000306800F00700B84251D128683B4C8107BB
:100BF00012D5400703D5606840F4E0606060287853
:100C0000000703D5606840F4605060606068A968C0
:100C100020F0F000084360602878C00728D068689A
:100C2000012810D02168022810D0890700292EDA67
:100C3000616821F0030101436160FFF7A9FD80466F
:100C400041F288390DE021688903EFE78901EDE77A
:100C5000FFF79EFDA0EB0801494502D90320BDE83E
:100C6000F0876068696800F00C00B0EB810FEFD18D
:100C7000306800F00700B8420BD9306820F0070058
:100C800038433060306800F00700B84201D00120DE
:100C9000E5E72878400705D56068E96820F4E0605A
:100CA000084360602878000706D56068296920F449
:100CB000605040EAC100606000F038F86168084A9E
:100CC000C1F30311515CC84006490860064800683A
:100CD000FFF706FF0020C2E700200240001002409C
:100CE000A620000810000020080000200448054944
:100CF00000684968044AC1F30221515CC84070474A
:100D00001000002000100240B620000804480549E9
:100D100000684968044AC1F3C221515CC840704769
:100D20001000002000100240B62000080E4A516852
:100D30000E4801F00C03042B11D0082B0FD10C48E6
:100D4000C1F38343C903C05C0AD55168084AC1F3A3
:100D50004041921E515C054A5043B0FBF1F0704790
:100D600004494843704700000010024000127A0016
:100D70009620000800093D002DE9F84F040070D0CE
:100D80002078C04DC00749D06868C0F381000128B1
:100D900007D06868C0F38100022809D16868C003E1
:100DA00006D52868800339D560680028E7D035E08B
:100DB0006068B0F5803F0BD010B1B0F5A02F11D016
:100DC000286820F480302860286820F4802002E021
:100DD000286840F480302860606890B1FFF7D8FC44
:100DE00006460AE0286840F480202860F0E700BF4B
:100DF000FFF7CEFC801B642873D828688003F7D5E2
:100E00000CE0FFF7C5FC064605E000BFFFF7C0FC9D
:100E1000801B6428F0D828688003F7D420789A4E85
:100E200080074FF001094FF0000839D5686810F0CD
:100E30000C0F07D06868C0F38100022809D16868E8
:100E4000C00306D42868800714D52069012808D17A
:100E500010E02069B0B1C6F80090FFF799FC074692
:100E600005E00AE1FFF794FCC01B0228C4D82868FB
:100E70008007F7D52868616920F0F80040EAC100D2
:100E800028600DE0C6F80080FFF782FC074604E00A
:100E9000FFF77EFCC01B022823D828688007F7D400
:100EA000207800072CD57948A169D9B1C0F8009005
:100EB000FFF76EFC074604E0FFF76AFCC01B022840
:100EC0000FD8686A8007F7D571484FF4FA51006867
:100ED000B0FBF1F0009000BF0098411E0091FAD2E3
:100EE0000EE080E0C0F80080FFF752FC074604E007
:100EF000FFF74EFCC01B022875D8686A8007F7D43C
:100F00002078400760D5E8690027C00008D4E86968
:100F100040F08050E861E869012700F080500090BF
:100F20005C480168C90513D40168834641F48071A7
:100F30000160FFF72DFC824606E000BFFFF728FCAA
:100F4000A0EB0A0064284ED8DBF80000C005F5D5F8
:100F5000E06801280AD008B1052813D0286A20F0DB
:100F600001002862286A20F0040002E0286A40F0AC
:100F700001002862E06841F2883B98B1FFF708FC65
:100F800082460BE0286A40F004002862EEE700BFCA
:100F9000FFF7FEFBA0EB0A0159455AD8286A8007E3
:100FA000F6D50CE0FFF7F4FB824605E0FFF7F0FB17
:100FB000A0EB0A0159454CD8286A8007F6D41FB126
:100FC000E86920F08050E861E06988B36968C1F39E
:100FD0008101022944D00228C6F8608004D0FFF7BE
:100FE000D7FB044638E034E0FFF7D2FB074604E0C5
:100FF000FFF7CEFBC01B02282BD828688001F7D44E
:10100000206AB0F5803F05D16868A16820F40030FF
:1010100008436860D4E908010843696821F4741141
:1010200008436860C6F86090FFF7B2FB044606E02C
:1010300025E000BFFFF7ACFB001B022809D8286899
:101040008001F7D51BE000BFFFF7A2FB001B0228C1
:1010500002D90320BDE8F88F28688001F4D40EE09F
:101060000128F7D06868226A00F48031914204D1E7
:10107000616A00F47010884201D00120EAE7002084
:10108000E8E70000001002400000424280044242B3
:10109000100000200070004010B5401EB0F1807FAD
:1010A00001D3012010BD4FF0E02460610F216017D3
:1010B00000F008FD0020A06107202061002010BD85
:1010C00070B5040004D094F84100002510B106E08A
:1010D000012070BD84F84050204600F023F8242001
:1010E00084F841002068C16821F40051C1602046A5
:1010F00000F052FC2068016921F4904101612068F0
:10110000416921F02A0141612068C16841F4005120
:10111000C1606564202084F8410084F84200656362
:10112000002070BD30B585B0002400940194029475
:10113000039400681449884224D11448816941F419
:1011400080418161816901F480410491816941F0AC
:101150000401816180690E4D00F0040004904FF499
:1011600000700090022001900320039069462846F9
:10117000FFF72EFA2815CDE90004694628460294A7
:10118000FFF726FA05B030BD0038014000100240DC
:10119000000801402DE9F84F044690F842009A46B5
:1011A00016460D46202802D00220BDE8F88FB5B1C2
:1011B000AEB100206064222184F842102063FFF762
:1011C000E7FAA6858146E685A0684FF48058202777
:1011D000404501D1206920B12E46002529E001209B
:1011E000E3E7002625E04B46002220212046CDF8EB
:1011F00000A000F02DFC18B184F842700320D4E761
:1012000026B1A06840451AD038B108E0206840688F
:10121000C0F3080025F8020B08E0206978B12068C7
:10122000406800F07F0000BF06F8010BE08D401E13
:10123000E085E08D0028D6D184F84270B5E72068BB
:101240004068F1E7FEE701684A69D24352050FD4CE
:101250006FF480624A61002140F8301F20224273FF
:101260008173026942F00402026101730120704738
:1012700000207047F8B50446C06A1E460D46174662
:10128000082807D0012805D010F5803F02D0206B38
:10129000122804D12068016841F48071016013466E
:1012A00000224FF001112046009600F05DF840B199
:1012B00020680068C00502D54FF400702064032048
:1012C000F8BD2069B0F5804F0ED00620216800EAF5
:1012D000D51040F0F000086133463A460B492046ED
:1012E00000F08AF878B902E005F0FE0000E0E8B20C
:1012F00021680861054933463A46891F204600F0B7
:101300007BF80028DCD00120F8BD000008000100B7
:1013100070B516460D4604461EE02046FFF793FFC3
:1013200008B1012070BD681C16D0FFF731FA801B90
:10133000A84200D885B920684069C04340070BD552
:10134000002044F8300F20216173A073216941F01F
:10135000200121612073E4E720684069C043400711
:10136000DBD4002070BD00002DE9F04798461746F9
:101370000D460446C1F30746DDF820902AE000BF81
:10138000B8F1FF3F26D0FFF703FAA0EB0901414572
:1013900002D8B8F1000F1DD12068012E16D0806947
:1013A00025EA00000004000C12D00020B84211D140
:1013B000002044F8300F20216173A073216941F0AF
:1013C0002001216120730120BDE8F0874069E7E733
:1013D0000120EBE72068012E0AD0806925EA000091
:1013E0000004000C06D00020B842C9D00020EBE772
:1013F0004069F3E70120F7E72DE9F04798461646E4
:101400000D4604464FF000094FF0200AC1F307478C
:1014100023E020684069C043400515D42068016876
:1014200041F40071016021686FF480604861C4F884
:10143000309084F83DA084F83E90216C41F0040186
:10144000216484F83C9021E0701C06D0FFF7A0F9DD
:10145000A0EB0800B04203D816B1012F1FD021E045
:101460002068012F15D0806925EA00000004000CD7
:1014700018D000BF44F8309F84F80DA084F80E9077
:10148000216941F02001216184F80C900120BDE820
:10149000F087406925EA00000004000CEAD12068CA
:1014A000406901E02068806925EA00000004000C22
:1014B000AFD1ECE770B516460D4604461EE0204657
:1014C000FFF7C1FE08B1012070BD681C16D0FFF700
:1014D0005FF9801BA84200D885B920684069C043E5
:1014E00000060BD5002044F8300F20216173A07353
:1014F000216941F0200121612073E4E720684069FF
:10150000C0430006DBD4002070BD0000114808B5C0
:10151000816941F010018161816901F01001009140
:10152000816941F020018161816901F02001009110
:10153000816941F004018161816901F00401009138
:10154000816941F008018161806900F00800009024
:1015500008BD0000001002400D4810B50B490160A5
:101560000C49416000214FF480428160C0E90312C0
:1015700041618161C1610162FFF710F9002803D068
:10158000BDE81040FFF70FB810BD00000054004048
:1015900014000020A08601000C4810B50A49016023
:1015A0004FF4E1314160002181600C22C160C0E94B
:1015B00004128161C161FFF783FD002803D0BDE8FB
:1015C0001040FEF7F0BF10BD003801406800002059
:1015D000FEE7FEE710B5AE2000F096F8202000F000
:1015E00093F8102000F090F8B02000F08DF8C8209B
:1015F00000F08AF8002000F087F8102000F084F84E
:10160000402000F081F8812000F07EF8DF2000F01B
:101610007BF8A12000F078F8A62000F075F8A8204B
:1016200000F072F83F2000F06FF8A42000F06CF892
:10163000D32000F069F8002000F066F8D52000F013
:1016400063F8F02000F060F8D92000F05DF8222067
:1016500000F05AF8DA2000F057F8122000F054F8A1
:10166000DB2000F051F8202000F04EF88D2000F033
:101670004BF8142000F048F800F008F800F00CF9DE
:10168000BDE81040AF2000F03FB800004FF480618B
:101690000148FEF76FBE0000310100203CB51C7808
:1016A000059D203ACDE900455D68E41D5B78E408BE
:1016B000544303FB045200F087F83CBD2DE9F84188
:1016C0001E46154688460446079F09E033464146B4
:1016D00020460097FFF7E2FF70786D1C2044C4B2EB
:1016E0002A78002AF2D1BDE8F881000008B54FF051
:1016F000FF3200920B46024678210248FFF712F9AA
:1017000008BD000014000020024948700221014871
:10171000FFF7ECBF020000202DE9FC4180460720C6
:10172000CDE9000301F00704CD08164602FA04F0E3
:101730001F46C2B223464146284600F089F8002CD5
:101740000CD0601EC0B2CDE90007C4F1080026FA33
:1017500000F2681C0023414600F07AF8BDE8FC81E5
:101760002DE9FC4301F007061446CD089846814652
:1017700001F0070106EB080204FA01F0099F082AAC
:1017800016D90721CDE90017C2B23346494628468B
:1017900000F05EF808EB06000938C0B2CDE900079A
:1017A000C6F1080024FA00F2681C0023494607E04D
:1017B000521ED1B2CDE90017C2B23346494628467F
:1017C00000F046F8BDE8FC832DE9FF4F82B01D46CE
:1017D0000F989346C70800F007008846002601903E
:1017E00018E0029800240BEB060A00EB06090DE056
:1017F00004FB05F0109B10F80A2008EBC400C1B2EE
:1018000009F0FF00FFF788FF641CE4B2BC42EFD38D
:10181000761CF6B2AE42E4D30198002815D005FB41
:1018200007F6002408EBC7070DE010980090311967
:1018300002981BF801202044F9B2C0B2019BFFF7C7
:101840008FFF641CE4B2AC42EFD306B0BDE8F08F6A
:10185000F0B50828DDE9056419D2802917D20CB14A
:10186000D243D2B2FF25761C05FA06F6C3F108036F
:10187000084F46EA0204DD4007EBC017044B785CD2
:10188000B2432C43AA4320401A7010437854F0BD51
:10189000000000203101002070B5104D40200024D0
:1018A000287005F1810600BF04F1B000C0B2FFF757
:1018B0002BFF0020FFF728FF1020FFF725FF06EB86
:1018C000C4118022681CFEF710FD81210348FFF738
:1018D0000DFF641CE4B2082CE6D370BDB0000020FC
:1018E00070477047FFF7E2B830B58FB028216846DF
:1018F000FEF762FD14210AA8FEF75EFD012108042F
:10190000CDE900100024029402250491CDE907508E
:101910004FF4E01009906846FFF72EFA08B172B64E
:10192000FEE70F20CDE90A054FF48060CDE90C40B9
:1019300002210AA80E94FFF743F9002801D072B6DD
:10194000FEE70FB030BD704701680C3151E8002F41
:1019500022F4907241E80023002BF5D10168143184
:1019600051E8002F22F0010241E80023002BF5D1BD
:10197000016B012909D101680C3151E8002F22F0D7
:10198000100241E80023002BF5D1202180F84210FD
:10199000002101637047000070B5044600680169CA
:1019A000E26821F44051114301612169A0680843B4
:1019B000616908432168CA6841F20C639A43024393
:1019C000CA6020684169A26921F4407111434161F4
:1019D0001E492068884202D1FFF798F901E0FFF71D
:1019E00085F900EBC00101EB001260686421800002
:1019F000B2FBF0F3B3FBF1F36FF018067343B2FBE5
:101A0000F0F5B2FBF0F605EB8305322303EB051589
:101A1000B5FBF1F5B6FBF1F605F0F00505EB0615A3
:101A2000B2FBF0F6B2FBF0F0B0FBF1F06FF0180291
:101A3000504306EB800003EB0010B0FBF1F021688F
:101A400000F00F002844886070BD0000003801409D
:101A50002DE9F843984617460D460446089E24E0B3
:101A6000701C22D0FEF794FEA0EB0800B0421AD8FA
:101A7000CEB12068C168490717D5802D15D0402DFB
:101A800013D00168C94309070FD4016800254068D5
:101A900000902046FFF758FF0820606484F840500B
:101AA0000120BDE8F8830320FBE72068006835EAE1
:101AB000000004D00020B842D2D00020F1E701207D
:101AC000F9E7FEE70907090E002804DB00F1E02032
:101AD00080F80014704700F00F0000F1E02080F85B
:101AE000141D7047AAB0802101A8FEF765FC0025EF
:101AF000219522952C462395FEF7E0FFFFF7F4FE93
:101B0000FFF704FDFFF728FDFFF746FD1420FEF761
:101B10004DFDFFF75FFD4FF0FF3901AE21AF3119E9
:101B20004B4601222C48FFF735FB305D0A2801D0D7
:101B30007F2C4ED3355529A101A8FEF7C4FBF0B187
:101B400000F10D0422212046FEF7B3FBB8B1001BC3
:101B5000C0B280460A2812D20246214621A8FEF7CA
:101B600052FC07F8085021AA20A124A8FEF730FB58
:101B70000021214B24AA08460095FFF79FFD1FA1D5
:101B800001A8FEF7A0FBF0B100F10B0422212046D2
:101B9000FEF78FFBB8B1001BC0B280460A2812D2F4
:101BA0000246214621A8FEF72EFC07F8085021AA7C
:101BB00016A127A8FEF70CFB0F4B27AA1421002023
:101BC0000095FFF77BFD0024802101A8FEF7F4FBC0
:101BD000A5E7641CA4B2A2E7680000202274656D2A
:101BE0007065726174757265223A220054656D7079
:101BF0003A202573430000008C2000082268756D90
:101C00006964697479223A220000000048756D69A0
:101C1000643A25734300000000000000000000004B
:101C2000000000000000FC000000000002000000B6
:101C3000000C020C020000000000000090D0BCD09C
:101C4000BC900003000300001824FE448C00030233
:101C5000070201001824D8B04C80000300010201E3
:101C6000C038E438E0000102020102020806000068
:101C70000000000000000000000000F80402000066
:101C800000010204000204F8000000040201000048
:101C90009060F86090000000010000002020FC200F
:101CA0002000000001000000000000000000080605
:101CB0000000000020202020200000000000000084
:101CC0000000000000000002000000000080601C16
:101CD0000200040300000000F8040404F8000102FC
:101CE000020201000008FC000000000203020000E4
:101CF0001884442418000302020202000804242469
:101D0000D80001020202010040B088FC80000000FF
:101D1000000302003C242424C4000102020201004A
:101D2000F824242CC0000102020201000C04E41C6F
:101D30000400000003000000D8242424D80001027D
:101D40000202010038444444F8000003020201008A
:101D50000000100000000000020000000000200051
:101D6000000000000600000000205088040200006F
:101D70000000010290909090900000000000000090
:101D80000002048850200002010000001804C4244E
:101D90001800000002000000F804E494F8000102BA
:101DA0000202020000E09CF0800002030000030237
:101DB00004FC2424D800020302020100F8040404F5
:101DC0000C0001020202010004FC0404F8000203FA
:101DD0000202010004FC24740C000203020203004E
:101DE00004FC24740C00020302000000F008044408
:101DF000CC4000010202010004FC2020FC0402038C
:101E0000000003020404FC040400020203020200B6
:101E1000000404FC040406040403000004FC24D0B1
:101E20000C0402030200030204FC0400000002038D
:101E300002020203FC3CC03CFC0003000300030060
:101E400004FC30C4FC04020302000300F804040490
:101E5000F80001020202010004FC2424180002031D
:101E600002000000F8848404F80001020207050063
:101E700004FC246498000203020003021824244492
:101E80008C000302020201000C04FC040C0000029E
:101E90000302000004FC0000FC0400010202010037
:101EA000047C80E01C040000030000001CE03CE017
:101EB0001C00000300030000049C609C040002035B
:101EC00000030200041CE01C0400000203020000E6
:101ED0000C84641C04000203020203000000FE02E2
:101EE0000200000007040400000E30C000000000E3
:101EF00000010200000202FE0000000404070000CE
:101F000000040204000000000000000000000000C7
:101F1000000008080808080800000200000000008F
:101F2000000000000040A0A0C00000010202030267
:101F300004FC2020C00000030202010000C0202099
:101F4000600000010202020000C02024FC00000129
:101F50000202030200C0A0A0C000000102020200B1
:101F60000020F82424040002030202000040A0A084
:101F7000602000070A0A0A0404FC2020C0000203B3
:101F8000020003020020E40000000002030200003F
:101F9000000020E4000008080807000004FC80E0BE
:101FA00020200203020003020404FC0000000202DD
:101FB00003020200E020E020C00003000300030051
:101FC00020E02020C00002030200030200C0202005
:101FD000C00000010202010020E02020C000080F24
:101FE0000A02010000C02020E0000001020A0F08E0
:101FF00020E0402020000203020000000060A0A0BA
:1020000020000002020203000020F820000000006F
:102010000102020020E00020E000000102020302B1
:1020200020E0208060200000030100006080E0804C
:1020300060000003000300002060806020000203B5
:102040000003020020E02080602008080701000053
:102050000020A0602000000203020200000020DE39
:102060000200000000070400000000FF0000000064
:10207000000F00000002DE20000000040700000046
:102080000201020404020000000000000C0600002F
:10209000181C0008010202030405060708090A0BC0
:1020A0000C0D0E0F101000000000000000000102D7
:1020B00003040607080900000000010203040000F1
:1020C000E0200008000000201400000028010008A3
:1020D000F420000814000020840B000044010008D4
:1020E00000000000010000001000000000000000DF
:0420F00000127A0060
:04000005080000ED02
:00000001FF
