:020000040800F2
:100000006006002001010008871A0008FB1800089C
:10001000851A0008370300087D1F00080000000053
:10002000000000000000000000000000F71A0008B7
:100030009303000800000000891A0008F91A00085C
:100040001B0100081B0100081B0100081B01000820
:100050001B0100081B0100081B0100081B01000810
:100060001B0100081B0100081B0100081B01000800
:100070001B0100081B0100083903000845030008A4
:10008000510300085D0300081B0100081B01000864
:100090001B0100081B0100081B0100081B010008D0
:1000A0001B0100081B0100081B0100081B010008C0
:1000B0001B0100081B010008000000001B010008D4
:1000C0001B01000800000000000000001B010008E8
:1000D00000000000651F0008711F000800000000FC
:1000E0001B0100081B0100081B010008DFF80CD0F1
:1000F00000F0B2F8004800475521000860060020D3
:100100000648804706480047FEE7FEE7FEE7FEE7B1
:10011000FEE7FEE7FEE7FEE7FEE7FEE77D1B0008E1
:10012000ED0000080048704710240008D2B201E03A
:1001300000F8012B491EFBD270470022F6E710B5EC
:1001400013460A4604461946FFF7F0FF204610BD45
:1001500030B505462A460B4612F8010B13F8014B41
:1001600008B1A042F8D01CB1002802D06D1CF1E704
:10017000284630BD10B5044604E00B7800F8013B7A
:1001800003B1491C521EF8D2204610BDCAB2401E0F
:1001900010F8011F8A4202D00029F9D100207047CF
:1001A00070B5064601F00CFF046805460A220021DE
:1001B000304600F018F82C6070BD30B50B46014693
:1001C00000202022012409E021FA02F59D4205D3F6
:1001D00003FA02F5491B04FA02F52844151EA2F1A0
:1001E0000102F1DC30BD2DE9F04791460F46804613
:1001F0000446002614F8015B2DB1FFF793FF006859
:10020000405DC007F6D12B2D02D02D2D18D0641ED5
:100210004A463946204600F031F827B13968A142F4
:1002200001D1C7F8008071054FF002040BD54042A0
:10023000002803DD01F0C4FE0460A007BDE8F087DC
:1002400046F48066E4E70028F8DA01F0B9FE0460BD
:100250006FF00040F2E70000064C074D06E0E06852
:1002600040F0010394E8070098471034AC42F6D3FD
:10027000FFF740FF14240008342400082DE9F05F44
:1002800082460078002715468B460AF10104B946DC
:10029000302801D09DB113E014F8010B0127782814
:1002A00003D0582801D045B10AE00DB1102D07D177
:1002B0000027102514F8010B02E0082500E00A25AC
:1002C0000026B0460EE005FB080005FB06F10127FD
:1002D00001EB10461FFA80F8B6F5803F00D3B9460F
:1002E00014F8010B294600F018F80028EBDABBF1EE
:1002F000000F05D00FB1641E00E05446CBF800405B
:10030000B9F1000F06D001F05BFE02210160C81EAA
:10031000BDE8F09F48EA0640FAE73A2800D23038B4
:1003200020F02002412A01D3A2F13700884201D3F4
:100330004FF0FF307047FEE7014800F09DB8000025
:1003400094010020014800F097B8000050010020FF
:10035000014800F091B80000D8010020014800F0E9
:100360008BB800001C02002030B590F840500124EA
:10037000AC40C56B6C60046863604368102B036815
:1003800003D099600068C26030BD9A600068C160A7
:1003900030BD704772B6FEE710B590F8211000220C
:1003A000022905D00421816380F82020012010BD9E
:1003B00001680B6823F00E030B6001680B6823F0E3
:1003C00001030B6090F84030C46B012101FA03F384
:1003D000636080F8211080F82020104610BD0000D6
:1003E00010B590F821100024022903D00421816364
:1003F00001243DE001680A6822F00E020A600168EB
:100400000A6822F001020A601A4A0168914201D189
:10041000012121E0174A1432914201D110211BE041
:10042000144A2832914201D1891515E0114A3C3213
:10043000914201D189140FE00E4A5032914202D10B
:100440004FF4803108E00B4A6432914202D14FF4FC
:10045000801101E04FF08071064A083A5160012195
:1004600080F82110002180F82010416B01B18847ED
:10047000204610BD080002402DE9F05FC16B0C68FA
:1004800001680B68D0F840C0042202FA0CF2494D12
:10049000DFF824A1494E4A4FDFF828B1DFF828E100
:1004A00022422CD05A072AD50A68920603D40A6839
:1004B00022F004020A600168A94201D1042219E075
:1004C000514501D1402215E0B14202D14FF4806282
:1004D00010E0B94202D14FF480420BE0594502D1FD
:1004E0004FF4802206E0714502D14FF4800201E012
:1004F0004FF080622F4908394A60C16A3BE04FF0F3
:10050000020808FA0CF818EA040F4FF000094FF03F
:10051000010235D05FEA837832D50B689B0605D49B
:100520000B6823F00A030B6080F821200168A942C0
:1005300001D1022219E0514501D1202215E0B1423A
:1005400002D14FF4007210E0B94202D14FF40052D0
:100550000BE0594502D14FF4003206E0714502D15B
:100560004FF4001201E04FF00072124908394A605E
:1005700080F82090816A00291AD0BDE8F05F084712
:10058000082505FA0CF5254212D01B0710D50B687B
:1005900023F00E030B6090F84010C36B02FA01F1D8
:1005A0005960826380F8212080F82090016BE2E797
:1005B000BDE8F09F080002401C00024030000240ED
:1005C00044000240580002406C00024030B528B39D
:1005D00008C8134914221944B1FBF2F18900C16320
:1005E00010498163022141771A6843F6F0718A430A
:1005F000D0E900142143D0E902452C43214304698A
:100600002143446921438469214311431960002136
:100610004163012242770177084630BD012030BD99
:10062000F8FFFDBF0000024070B5044690F82000BE
:10063000002501280CD0012084F8200094F82160C6
:100640000020012E06D084F820000225284670BD27
:10065000022070BD022684F82160A063206806682D
:1006600026F0010606602046FFF77EFEE06A0028BD
:100670002068016802D041F00E0106E021F004017B
:1006800001602068016841F00A010160206801688A
:1006900041F001010160D9E770B5044600F0EEF8C1
:1006A0000546601C02D004480078044400F0E6F8D7
:1006B000401BA042FAD370BD0C0000202DE9F84F7A
:1006C000DFF89C910024A9F1040B23460F2709F1C0
:1006D000040AABF1040EBBE00125A5402A40AA4262
:1006E00076D1DFF880C14E68A6EB0C0866452BD0AA
:1006F0000DDC032E34D005DC36B3012E19D0022ECA
:100700002FD11BE0112E16D0122E2AD119E0B8F5E8
:10071000881F19D006DCB8F5803F15D0B8F5801FCA
:100720001FD111E0B8F5001F0ED0B8F5041F18D185
:100730000AE0CB6815E0CB681B1D12E0CB680833DC
:100740000FE0CB680C330CE08B682BB1012B4FF022
:10075000080303D0456104E0042302E0056100E0E2
:100760000023FF2A01D8064601E000F104064FEA03
:10077000840501D9A5F12005D6F8008007FA05FC0B
:1007800028EA0C0803FA05F548EA0508C6F80080CF
:100790004D68ED005BD5344DAE6946F00106AE61A3
:1007A000AD6924F0030605F0010500952F4D06EB19
:1007B000050CDCF80850A607360F07FA06F825EAFC
:1007C0000805DFF8AC80404503D14FF0000810E089
:1007D0003DE0DFF8A080404502D14FF0010808E07D
:1007E000DFF89480404502D14FF0020801E04FF05D
:1007F000030808FA06F848EA0508CCF808804D68AE
:10080000D9F80060ED024D4601D5164300E096434D
:100810002E604D68DAF80060AD02554601D51643EA
:1008200000E096432E604D68DBF80060AD035D4646
:1008300001D5164300E096432E604D68DEF8006057
:10084000ED03754601D5164300E096432E60641C07
:100850000A6832FA04F57FF43FAFBDE8F88F000074
:100860000804014000001110001002400000014087
:1008700000080140000C0140001001400148806860
:10088000704700000C00002070B5040025D094F8DB
:100890003D00002520B984F83C50204600F0B8F80F
:1008A000242084F83D002068016821F001010160E6
:1008B0002068016841F4004101602068016821F46A
:1008C0000041016000F0CEFA4D4A6168914201D8C2
:1008D0004C4900E04C49884201D2012070BD4B498F
:1008E0002368B0FBF1F15E6826F03F060E435E60C0
:1008F0006368934206D94FF4967359434FF47A7361
:10090000B1FBF3F12368491C1E6A26F03F06314310
:1009100019626168914210D84900401EB0FBF1F2A3
:10092000521CC2F30B02042A01D2042022E0B0FBC5
:10093000F1F0401CC0F30B001CE0A268F2B301EB25
:10094000C10303EB0116431EB3FBF6F35B1C43F438
:1009500080431B0549D092B301EBC10202EB0111A8
:10096000401EB0FBF1F0401CC0F30B0040F480408F
:1009700040F400402168CA694CF6FF739A43104363
:10098000C861D4E9071001432068026822F0C00260
:1009900011430160D4E9030101432068826848F2F1
:1009A000FF339A4311438160D4E90501084321686C
:1009B000CA6822F0FF021043C86001E00EE016E0B2
:1009C0002068016841F0010101602564202084F85D
:1009D0003D00256384F83E50002070BD01EB4106C8
:1009E000431EB3FBF6F35B1CB3E70120C2E701EB48
:1009F0004101401EB0FBF1F0401CC0F30B00B7E713
:100A0000A086010080841E0000093D0040420F00C6
:100A100010B586B000210091019102910391006808
:100A20000F4988421AD10F4CA06940F00800A0611C
:100A3000A069694600F008000490C02000901220D0
:100A40000190032003900848FFF738FEE06940F466
:100A50000010E061E06900F40010049006B010BDE1
:100A60000054004000100240000C01400248816820
:100A700002781144816070470C000020074810B5CF
:100A8000016841F010010160032000F075F80F20AB
:100A900000F006F800F024F8002010BD002002400D
:100AA00070B50D4D04464FF47A712878B1FBF0F023
:100AB0000A490968B1FBF0F000F02BFC48B9102C92
:100AC00007D200222146501E00F036F800206C604C
:100AD00070BD012070BD00000C0000201800002037
:100AE0000C4808B5816941F001018161816901F01B
:100AF00001010091C16941F08051C161C06900F0FC
:100B0000805000900448416821F0E06141F000719C
:100B1000416008BD0010024000000140002809DBD0
:100B200000F01F02012191404009800000F1E02007
:100B3000C0F8001170470000F0B40E4B1B680C4663
:100B4000C3F30223C3F10705042D00D90425191DA1
:100B5000072901D2002300E0DB1E012606FA05F179
:100B6000491E214099409E40761E16403143F0BCFC
:100B700001F016BA0CED00E0064900F00702086823
:100B80004FF6FF03184040EA0220034A1043086072
:100B9000704700000CED00E00000FA05014901205B
:100BA0000862704700000E4210B501460020234C39
:100BB000012922D0022939D010291DD1616822686B
:100BC000D20119D51E48C1F38342C903805C0AD5FE
:100BD00061681B4AC1F34041921E515C194AB2FB45
:100BE000F1F1484301E0184948436168490203D4E0
:100BF00040000321B0FBF1F010BD226AC2F30121D5
:100C0000012903D1920701D5C80310BD022905D1DE
:100C1000626A920702D549F6404010BD0329FCD113
:100C200021688903F9D54FF2244010BD00F02AF95C
:100C30006168C1F38131491C4900DBE700100240C3
:100C40006423000800127A0000093D002DE9F843F2
:100C500005460078354CC00754D0E0690026C00036
:100C600008D4E06940F08050E061E069012600F0BE
:100C7000805000902E480168C90512D40168804652
:100C800041F480710160FFF7F9FD074605E000BF00
:100C9000FFF7F4FDC01B642823D8D8F80000C00576
:100CA000F6D5206A10F4407021D0A98801F4407173
:100CB00081421CD0206A1F49012220F440700A6042
:100CC00000220A602062C00711D0FFF7D7FD074657
:100CD00041F2883808E000BFFFF7D0FDC11B414555
:100CE00002D90320BDE8F883206A8007F4D5206A82
:100CF000696820F44070084320621EB1E06920F06A
:100D00008050E0612878800705D56068A96820F4E4
:100D10004040084360602878C00605D56068E968EF
:100D200020F48000084360600020DBE700100240F0
:100D300000700040400442422DE9F0470F46050094
:100D400061D0434E306800F00700B84209D23068E5
:100D500020F0070038433060306800F00700B842E8
:100D600051D128683B4C810712D5400703D56068F4
:100D700040F4E06060602878000703D5606840F4C4
:100D8000605060606068A96820F0F000084360600F
:100D90002878C00728D06868012810D02168022868
:100DA00010D0890700292EDA616821F00301014380
:100DB0006160FFF763FD804641F288390DE02168EC
:100DC0008903EFE78901EDE7FFF758FDA0EB080184
:100DD000494502D90320BDE8F0876068696800F0E2
:100DE0000C00B0EB810FEFD1306800F00700B84283
:100DF0000BD9306820F0070038433060306800F0CD
:100E00000700B84201D00120E5E72878400705D562
:100E10006068E96820F4E0600843606028780007B3
:100E200006D56068296920F4605040EAC10060601E
:100E300000F038F86168084AC1F30311515CC840FA
:100E40000649086006480068FFF72AFE0020C2E74E
:100E50000020024000100240742300081800002007
:100E6000100000200448054900684968044AC1F39D
:100E70000221515CC8407047180000200010024059
:100E8000842300080448054900684968044AC1F3FE
:100E9000C221515CC8407047180000200010024079
:100EA000842300080E4A51680E4801F00C03042BFD
:100EB00011D0082B0FD10C48C1F38343C903C05C88
:100EC0000AD55168084AC1F34041921E515C054A57
:100ED0005043B0FBF1F070470449484370470000AD
:100EE0000010024000127A005223000800093D0061
:100EF0002DE9F84F040070D02078C04DC00749D0CC
:100F00006868C0F38100012807D06868C0F38100D9
:100F1000022809D16868C00306D52868800339D53E
:100F200060680028E7D035E06068B0F5803F0BD0FE
:100F300010B1B0F5A02F11D0286820F480302860BF
:100F4000286820F4802002E0286840F4803028607F
:100F5000606890B1FFF792FC06460AE0286840F40A
:100F600080202860F0E700BFFFF788FC801B642822
:100F700073D828688003F7D50CE0FFF77FFC06469E
:100F800005E000BFFFF77AFC801B6428F0D82868D2
:100F90008003F7D420789A4E80074FF001094FF074
:100FA000000839D5686810F00C0F07D06868C0F3E6
:100FB0008100022809D16868C00306D42868800728
:100FC00014D52069012808D110E02069B0B1C6F815
:100FD0000090FFF753FC074605E00AE1FFF74EFCDF
:100FE000C01B0228C4D828688007F7D52868616923
:100FF00020F0F80040EAC10028600DE0C6F800804B
:10100000FFF73CFC074604E0FFF738FCC01B022852
:1010100023D828688007F7D4207800072CD5794892
:10102000A169D9B1C0F80090FFF728FC074604E099
:10103000FFF724FCC01B02280FD8686A8007F7D589
:1010400071484FF4FA510068B0FBF1F0009000BF16
:101050000098411E0091FAD20EE080E0C0F80080B6
:10106000FFF70CFC074604E0FFF708FCC01B022852
:1010700075D8686A8007F7D42078400760D5E8699A
:101080000027C00008D4E86940F08050E861E869B2
:10109000012700F0805000905C480168C90513D416
:1010A0000168834641F480710160FFF7E7FB8246E7
:1010B00006E000BFFFF7E2FBA0EB0A0064284ED871
:1010C000DBF80000C005F5D5E06801280AD008B1BA
:1010D000052813D0286A20F001002862286A20F031
:1010E000040002E0286A40F001002862E06841F252
:1010F000883B98B1FFF7C2FB82460BE0286A40F0BC
:1011000004002862EEE700BFFFF7B8FBA0EB0A017E
:1011100059455AD8286A8007F6D50CE0FFF7AEFB90
:10112000824605E0FFF7AAFBA0EB0A0159454CD81F
:10113000286A8007F6D41FB1E86920F08050E86182
:10114000E06988B36968C1F38101022944D00228AB
:10115000C6F8608004D0FFF791FB044638E034E025
:10116000FFF78CFB074604E0FFF788FBC01B022853
:101170002BD828688001F7D4206AB0F5803F05D1CC
:101180006868A16820F4003008436860D4E9080169
:101190000843696821F4741108436860C6F86090D8
:1011A000FFF76CFB044606E025E000BFFFF766FB97
:1011B000001B022809D828688001F7D51BE000BF72
:1011C000FFF75CFB001B022802D90320BDE8F88F63
:1011D00028688001F4D40EE00128F7D06868226AFC
:1011E00000F48031914204D1616A00F470108842A9
:1011F00001D00120EAE70020E8E7000000100240EB
:10120000000042428004424218000020007000406A
:1012100070B5040003D0607C002610B105E0012009
:1012200070BD2674204600F03DF802206074204610
:1012300000F052F8042550BB204600F026FC30BBDD
:101240002068416821F007014160A06820B114487E
:10125000016821F0010101601148001F0168A268C6
:1012600021F46071114301606068411C04D10120C8
:10127000FFF79AFC58B1401E2268C0F30341916009
:10128000216880B2C860204600F01AFC08B165747D
:10129000C5E7E67301206073A0736074002070BD21
:1012A000306C004008B50068084988420DD1FFF74E
:1012B00075FC0748C16941F00061C161C069054919
:1012C00000F0006000900120086008BD0028004088
:1012D000001002403C04424270B504000AD020686D
:1012E000416821F008014160FFF7C8FA05464FF454
:1012F0007A7608E0012070BDFFF7C0FA401BB042CB
:1013000001D9032070BD206840680007F4D5002093
:1013100070BD10B5401EB0F1807F01D3012010BD1B
:101320004FF0E02460610F21601700F039FE0020CB
:10133000A06107202061002010BD38B5044690F858
:101340004200202801D0022038BD51B14AB101200D
:10135000206300206063204600F082FD216B01299C
:1013600001D0012038BD21680A68496800912168D0
:101370000C3151E8002F42F0100241E80023002B0D
:10138000F5D138BD10B50068094A90420ED1094820
:10139000017001214170322207490848FFF7CDFF53
:1013A00007480068016821F00401016010BD0000D9
:1013B000004400400000002024000020080100201C
:1013C000D801002010B50068074988420AD13222AE
:1013D00006490748FFF7B1FF06480068016821F099
:1013E0000401016010BD0000004400402400002002
:1013F00008010020D8010020F8B5016804460868FB
:10140000CA684B6910F00F0F4FF0000559D003F078
:10141000010602F49077374365D0C10705D0D105A6
:1014200003D5616C41F001016164410705D5D9071D
:1014300003D0616C41F002016164810705D5D907D1
:1014400003D0616C41F004016164010707D502F02B
:101450002001314303D0616C41F008016164616C8B
:1014600000293AD0800604D5900602D5204600F027
:101470003AFC20684069616CC0F38010090700D411
:1014800060B3204600F0FAFB20684069400621D591
:101490002068143050E8001F21F0400140E800129D
:1014A000002AF5D1E06BA8B16D494163E06BFEF70E
:1014B00097FF002811D0E06B416B01B0BDE8F04010
:1014C000084783060FD593060DD52046BDE8F840A2
:1014D00000F009BC2046FFF775FFF8BD2046FFF776
:1014E00071FF6564F8BD266B2023012E7CD1C606F2
:1014F0007AD5D60678D508684868009048694FF0D4
:101500000206400640D5E16B086840680004000C04
:10151000E8D0A28D8242E5D9E085886920282DD0C7
:1015200020680C3050E8001F21F4807140E8001260
:10153000002AF5D12068143050E8001F21F0010185
:1015400040E80012002AF5D12068143050E8001F4E
:1015500021F0400140E80012002AF5D184F8423021
:10156000256320680C3050E8001F21F0100140E88E
:101570000012002AF5D1E06BFEF70EFF6663A08D26
:10158000E18D401A81B22AE0A08DE18D401A81B22E
:10159000E08D0028A6D00029A4D022680C3252E8A1
:1015A000000F20F4907042E80007002FF5D120686A
:1015B000143050E8002F22F0010240E80027002FED
:1015C000F5D184F84230256320680C3050E8002FB4
:1015D00022F0100240E80023002BF5D1666320467C
:1015E000FFF7D0FEF8BDFFE705062BD5150629D578
:1015F00094F841002128F5D1A068B0F5805F01D1B1
:101600002069B0B1206A411C2162216800784860DD
:10161000E08C401E0004000CE084E3D12068C16827
:1016200021F08001C1602068C16841F04001C160C3
:10163000D8E7206A0088C0F308004860206A801C50
:101640002062E5E74006CDD55006CBD5CA682046D6
:1016500022F04002CA6084F8413000F04DF9C1E741
:101660007F1B000870B5040004D094F841000025E9
:1016700010B106E0012070BD84F84050204600F013
:1016800023F8242084F841002068C16821F4005127
:10169000C160204600F088FB2068016921F4904178
:1016A00001612068416921F02A0141612068C16817
:1016B00041F40051C1606564202084F8410084F841
:1016C00042006563002070BD2DE9F04186B0002521
:1016D00000950195029503950446DFF860C1036803
:1016E000574802210322574F80264FF010086345C8
:1016F0004CD1836943F480438361836903F480435D
:101700000493836943F0040383618069039200F0CA
:10171000040004900802CDE9000169463846FEF74E
:10172000CDFFF000CDE90005694638460295FEF789
:10173000C5FF464F4448C7E90005C7E902563D6169
:101740007D61BD613846FD61FEF740FF08B1FEF7DF
:1017500021FEE7637C623D4F3B4844371438C7E9BC
:1017600002563D617D61BD61FD61C7E900083846F3
:10177000FEF72CFF08B1FEF70DFEA763002211460D
:1017800025207C62FFF7D8F9252051E0DFF8C0C0A2
:1017900063454FD1C36943F40033C361C36903F4A4
:1017A00000330493836943F00403836180690392E7
:1017B00000F0040004900420CDE900016946384699
:1017C000FEF77CFF0820CDE9000569463846029502
:1017D000FEF774FF1D4F1C4888371430C7E9000519
:1017E000C7E902563D617D61BD613846FD61FEF786
:1017F000EDFE08B1FEF7CEFDE7637C62134F1248A1
:10180000CC372830C7E902563D617D61BD61FD617D
:10181000C7E900083846FEF7D9FE08B1FEF7BAFD61
:10182000A7630022114626207C62FFF785F9262057
:10183000FFF774F906B0BDE8F08100000038014000
:1018400000100240000801405800024050010020F2
:1018500000440040704770472DE9F843044690F873
:101860004100984616460D46202802D00220BDE8C9
:10187000F88385B17EB100206064212084F84100A6
:10188000FEF7FCFFA6848146E684A0682027B0F519
:10189000805F02D003E00120E9E7206910B12E4605
:1018A00000250EE000260CE08021204600F020FB01
:1018B000A8B9C6B116F8010B21684860E08C401E3B
:1018C000E084E08C4B464FF00002CDF80080002809
:1018D000EAD14FF04001204600F00AFB40B184F805
:1018E00041700320C3E735F8020BC0F30800E3E7BB
:1018F00084F841700020BAE77047FEE7154808B544
:10190000416941F0010141614069002200F001009C
:10191000009011460E20FFF70FF90E20FFF7FEF89A
:10192000002211460F20FFF707F90F20FFF7F6F806
:10193000002211461020FFF7FFF81020FFF7EEF805
:10194000002211461120FFF7F7F8BDE808401120EA
:10195000FFF7E4B800100240114808B5816941F072
:1019600010018161816901F010010091816941F0EC
:1019700020018161816901F020010091816941F0BC
:1019800004018161816901F004010091816941F0E4
:1019900008018161806900F00800009008BD000026
:1019A000001002400D4810B50B4901600C49416020
:1019B00000214FF480428160C0E9031241618161DE
:1019C000C1610162FEF760FF002803D0BDE810404E
:1019D000FEF7E0BC10BD000000540040580000209D
:1019E000A08601000A4810B5084901604FF0FF3198
:1019F00041604FF480718160FFF70AFC002803D03A
:101A0000BDE81040FEF7C6BC10BD00000028004035
:101A1000AC0000200C4810B50A4901604FF4E131D8
:101A20004160002181600C22C160C0E90412816123
:101A3000C161FFF717FE002803D0BDE81040FEF794
:101A4000A9BC10BD00380140C00000200C4810B5F2
:101A50000A4901604FF4E1314160002181600C22AC
:101A6000C160C0E904128161C161FFF7FBFD00287C
:101A700003D0BDE81040FEF78DBC10BD004400400F
:101A800008010020FEE7FEE7704770B50446FEF748
:101A9000F5FE05464FF47A7606E0FEF7EFFE401BB2
:101AA000B04201D9032070BD206840688006F4D59B
:101AB0002068416841F010014160002070BD0000C5
:101AC00070B504460068416821F010014160FEF7DE
:101AD000D5FE05464FF47A7607E000BFFEF7CEFE4E
:101AE000401BB04201D9032070BD206840688006C9
:101AF000F4D5002070BD7047FEF7B8BF70B594B044
:101B000028216846FEF719FB14210AA8FEF715FBE9
:101B1000002501240F951195052012950090CDE91F
:101B2000025410954FF48030019002260494CDE9C0
:101B300007604FF4E01009906846FFF7D9F908B143
:101B400072B6FEE70F20CDE90A064FF48060CDE9BA
:101B50000C5002210AA80E95FFF7EEF808B172B6F4
:101B6000FEE74FF48070CDE90F400FA8FFF76EF845
:101B7000002801D072B6FEE714B070BD704710B5F2
:101B8000406A0021C185C184FFF71CFC10BD70B5FF
:101B9000446A2068406994F84110C0F3C0100025E1
:101BA000212904D118B1E584204600F08EF8206880
:101BB000406994F84210C0F38010222904D118B172
:101BC000E585204600F05AF8606C40F01000606433
:101BD0002046FFF7F7FB70BD10B50146406A096863
:101BE00009684FF0000289062ED4C28501680C31C5
:101BF00051E8003F23F4807341E80034002CF5D114
:101C00000168143151E8003F23F0010341E800343A
:101C1000002CF5D10168143151E8003F23F0400356
:101C200041E80034002CF5D1202180F84210016BEE
:101C3000012909D101680C3151E8003F23F010035C
:101C400041E80034002CF5D14263016B012902D038
:101C5000FFF700FE10BD818DFFF794FB10BD10B59E
:101C6000406A01214163016B012902D0FFF7F3FDB6
:101C700010BD818D4908FFF785FB10BD01680C314F
:101C800051E8002F22F4907241E80023002BF5D197
:101C90000168143151E8002F22F0010241E80023CD
:101CA000002BF5D1016B012909D101680C3151E8F4
:101CB000002F22F0100241E80023002BF5D1202153
:101CC00080F8421000210163704701680C3151E82F
:101CD000002F22F0C00241E80023002BF5D1202183
:101CE00080F84110704708B590F84210222901D0C1
:101CF000022008BD82684FF480539A4201D10169E5
:101D000021B1816A9A421BD04AB10AE00268816A15
:101D10005268C2F308020A80816A891C08E00269DD
:101D200072B10268526802F07F020A70816A491C2F
:101D30008162C18D491E0904090CC18503D01BE0D5
:101D400002685268F1E70168CA6822F02002CA609E
:101D50000168CA6822F48072CA6001684A6922F088
:101D600001024A61202180F8421000214163026B88
:101D7000012A03D0FFF76EFD002008BD0163016852
:101D80000C3151E8002F22F0100241E80023002B13
:101D9000F5D101680A68D20602D50A68496800913F
:101DA000818DFFF7EFFAE7E770B504460068016937
:101DB000E26821F44051114301612169A0680843A0
:101DC000616908432168CA6841F20C639A4302437F
:101DD000CA6020684169A26921F4407111434161E0
:101DE0001E492068884202D1FFF74CF801E0FFF756
:101DF00039F800EBC00101EB00126068642180003B
:101E0000B2FBF0F3B3FBF1F36FF018067343B2FBD0
:101E1000F0F5B2FBF0F605EB8305322303EB051575
:101E2000B5FBF1F5B6FBF1F605F0F00505EB06158F
:101E3000B2FBF0F6B2FBF0F0B0FBF1F06FF018027D
:101E4000504306EB800003EB0010B0FBF1F021687B
:101E500000F00F002844886070BD00000038014089
:101E600038B58162044682850020134660642222D0
:101E700084F84220E56B1B4AAA62E56B1A4AEA62C3
:101E8000E56B1A4A2A63E26B50630A462168E06BED
:101E9000091DFEF7C9FB20680168406800902069B1
:101EA00048B120680C3050E8001F41F4807140E8D0
:101EB0000012002AF5D12068143050E8001F41F0CC
:101EC000010140E80012002AF5D12068143050E8E2
:101ED000001F41F0400140E80012002AF5D1002027
:101EE00038BD0000D91B00085F1C00088F1B0008CC
:101EF0002DE9F843984617460D460446089E24E00F
:101F0000701C22D0FEF7BAFCA0EB0800B0421AD831
:101F1000CEB12068C168490717D5802D15D0402D56
:101F200013D00168C94309070FD401680025406830
:101F300000902046FFF7A2FE0820606484F840501D
:101F40000120BDE8F8830320FBE72068006835EA3C
:101F5000000004D00020B842D2D00020F1E70120D8
:101F6000F9E700000148FFF747BA0000C000002071
:101F70000148FFF741BA000008010020FEE7000019
:101F80000FB4054B10B503A9044A029800F02CF8D1
:101F900010BC5DF814FB00003D2100081C0000206F
:101FA0000907090E002804DB00F1E02080F8001486
:101FB000704700F00F0000F1E02080F8141D70471A
:101FC000004870472000002002E008C8121F08C126
:101FD000002AFAD170477047002001E001C1121FAA
:101FE000002AFBD1704700002DE9FF4F89B09B46C6
:101FF0000446002506E025280BD05A460B99904749
:10200000641C6D1C20780028F5D10DB02846BDE871
:10201000F08F0027B8460122474900E0074314F833
:10202000013F203B02FA03F00842F7D120782E2826
:1020300019D114F8010F47F004072A280ED06FF0C9
:102040002F022078A0F1300109290CD808EB880173
:1020500002EB410100EB0108641CF2E70A98641CE2
:1020600050F8048B0A9020780028CED0642808D03D
:10207000692806D075281ED05A460B9990476D1CCA
:1020800058E00A994FF00A0901C90A91002802DABA
:1020900040422D2102E0390504D52B218DF8201076
:1020A000012103E0F90704D02021F7E78A4608AEB2
:1020B0000DE00021FAE70A994FF00A0901C90A91D7
:1020C000F7E74946FEF779F8303106F8011D002898
:1020D000F7D1ADEB060000F12009780701D44FF0ED
:1020E0000108C84502DDA8EB090000E00020804699
:1020F000002706E008A85A46C05D0B9990476D1C62
:102100007F1C5745F6DB04E030205A460B99904778
:102110006D1CB8F10001A8F10108F5DC05E016F826
:10212000010B5A460B9990476D1CB9F10001A9F1BA
:102130000109F4DC641C65E70928010013B54FF0C0
:10214000FF33012269460248FFF786FB00981CBD59
:10215000C0000020FEF792FCFFF7D0FCFFF7FCFB6D
:10216000FFF7CCFBFFF71EFCFFF770FCFFF73AFC14
:10217000FFF750FC322216491648FFF7DEF81648E2
:102180000068016821F004010160114E134C002524
:102190004FF47A776078B8B12078104A3554083215
:1021A000111F0B4800F044F86168481C08D0A26871
:1021B0001046521C04D0024609A0FFF7E1FE02E0DF
:1021C00011A0FFF7DDFE65703846FEF765FAE1E71E
:1021D0002400002008010020D80100200000002079
:1021E00054656D70657261747572653A202564C2BC
:1021F000B0432C2048756D69646974793A20256470
:1022000025250D0A0000000054656D70657261742B
:102210007572653A204E2F41C2B0432C2048756D2F
:1022200069646974793A204E2F4125250D0A000012
:102230002DE9FE430E464FF0FF3131601160154627
:1022400081463CA1FDF784FF4FF0000830B30D300C
:1022500000E0401C01782029FBD03A29F9D00A2956
:10226000F7D0C9B2222925D1401C0446FDF78EFFC4
:10227000A0B1071B0A2F1DDA3A4621466846FDF732
:1022800079FF0DF807806C460AE000BFFDF74AFFB2
:102290000068C05D202802D0207820B10AE0641CCC
:1022A0002778002FF2D19DF8000018B16846FDF79D
:1022B00077FF306023A14846FDF74AFF002831D060
:1022C0000A3000E0401C01782029FBD03A29F9D0DF
:1022D0000A29F7D0C9B2222924D1401C0446FDF7AF
:1022E00055FF00281ED0061B0A2E1BDA3246214657
:1022F0006846FDF73FFF0DF806806C4615E000BF0D
:10230000FDF710FF0068805D20280DD020780028A0
:1023100008D100BF9DF80000002803D06846FDF7F3
:102320003FFF2860BDE8FE83641C2678002EE7D1BD
:10233000F0E700002274656D7065726174757265F6
:10234000220000002268756D6964697479220000BA
:10235000010202030405060708090A0B0C0D0E0F03
:102360001010010202030405060708090A0B0C0DF0
:102370000E0F101000000000000000000102030416
:102380000607080900000000010203040040404065
:102390004040404040404141414141404040404038
:1023A00040404040404040404040404040050202E4
:1023B00002020202020202020202020202202020A3
:1023C00020202020202020020202020202029090FF
:1023D00090909090101010101010101010101010FD
:1023E0001010101010101010020202020202888851
:1023F000888888880808080808080808080808085D
:102400000808080808080808020202024000000044
:102410008D23000834240008000000202400000060
:10242000C81F000858240008240000203C060000B3
:10243000D81F000800000000FFFFFFFFFFFFFFFFA5
:1024400001000000100000000000000000127A00EF
:08245000000000000000000084
:04000005080000ED02
:00000001FF
