:020000040800F2
:10000000680B002099010008831A00087B1600087D
:10001000811A00089308000825220008000000004B
:100020000000000000000000000000009D2100080A
:100030009508000800000000411F00089F210008EB
:10004000B3010008B3010008B3010008B3010008C0
:10005000B3010008B3010008B3010008B3010008B0
:10006000B3010008B3010008B3010008B3010008A0
:10007000B3010008B3010008B3010008B301000890
:10008000B3010008B3010008B3010008B301000880
:10009000B3010008B3010008B3010008B301000870
:1000A000B3010008B3010008B3010008B301000860
:1000B000B3010008B301000800000000B30100080C
:1000C000B30100080000000000000000B3010008B8
:1000D00000000000B3010008B301000800000000A8
:1000E000B3010008B3010008B301000800F002F8F2
:1000F00000F042F80AA090E8000C82448344AAF180
:100100000107DA4501D100F037F8AFF2090EBAE87D
:100110000F0013F0010F18BFFB1A43F0010318473B
:10012000F02F000010300000103A24BF78C878C1CA
:10013000FAD8520724BF30C830C144BF04680C60ED
:10014000704700000023002400250026103A28BF35
:1001500078C1FBD8520728BF30C148BF0B60704739
:10016000642900F07580752900F0728000207047C6
:100170001FB51FBD10B510BD00F051FB1146FFF7B4
:10018000F7FF02F067F800F06FFB03B4FFF7F2FF30
:1001900003BC00F077FB000009488047094800478E
:1001A000FEE7FEE7FEE7FEE7FEE7FEE7FEE7FEE727
:1001B000FEE7FEE704480549054A064B7047000084
:1001C00023220008ED00000868050020680B0020CD
:1001D00068070020680700200FB41CB5074B06AA6B
:1001E0007B4469460090059800F001FB00206946B9
:1001F00000F010FB1CBC5DF814FB00003106000091
:1002000070B5044685690068C10601D5302600E056
:100210002026C00707D070BDD4E9012130469047A1
:10022000206A401C20626D1EF6D570BD70B5044674
:1002300085690078C00707D170BDD4E9012120206D
:100240009047206A401C20626D1EF6D570BD0000EC
:100250002DE9F0410646002410687529314616A59F
:1002600010D0AFF30080002802DA404213A507E067
:1002700031688A0701D512A502E0490704D511A506
:10028000012401E0AFF3008000210A2206F12407D7
:1002900009E0B0FBF2FCB0FBF2F302FB1C003030D3
:1002A00078541846491C0028F3D123462A46304684
:1002B000BDE8F04100F03DBA000000002D00000054
:1002C0002B000000200000002DE9F05F8946044665
:1002D0004FF0000ADFF824B1FB44C0F820A020460C
:1002E000E168884700287DD0252806D0D4E901217F
:1002F0009047206A401C2062F1E700255F462046B7
:10030000E16888472028064607DB312E05D2B81958
:1003100010F8200C08B10543F1E7A80701D525F036
:100320000405C4F81CA00027C4F818A02A2E09D080
:10033000304601F088FF38B304EB8708303EC8F838
:10034000186019E059F8041B204604EB87029161FC
:10035000E1688847012F064618D1E069002820DAB5
:1003600025F020051DE0D8F8180000EB800006EB12
:1003700040003038C8F818002046E1688847064633
:1003800001F061FF0028EED1012F0AD02E2E08D1F6
:100390002046E16888477F1C0646022F45F020056D
:1003A000C4DBA069002803DA404245F00105A061E2
:1003B000E80701D025F01005A6B1A6F141001928E3
:1003C00002D8203645F400654A463146204625606D
:1003D0004D46FFF7C5FE60B1012807D0ED1D25F0A1
:1003E000070000E007E000F1080978E705F10409DB
:1003F00075E730467AE7206ABDE8F09F142E0000CA
:10040000032A40F2308010F0030C00F0158011F840
:10041000013BBCF1020F624498BF11F801CB00F818
:10042000013B38BF11F8013BA2F1040298BF00F86C
:1004300001CB38BF00F8013B11F0030300F0258029
:10044000083AC0F0088051F8043B083A51F804CB50
:10045000A0E80810F5E7121D5CBF51F8043B40F816
:10046000043BAFF30080D20724BF11F8013B11F821
:1004700001CB48BF11F8012B24BF00F8013B00F865
:1004800001CB48BF00F8012B704710B5203AC0F0EF
:100490000B80B1E81850203AA0E81850B1E8185085
:1004A000A0E81850BFF4F5AF5FEA027C24BFB1E8C2
:1004B0001850A0E8185044BF18C918C0BDE8104033
:1004C0005FEA827C24BF51F8043B40F8043B08BF3C
:1004D0007047D20728BF31F8023B48BF11F8012B03
:1004E00028BF20F8023B48BF00F8012B70474FF0AF
:1004F00000020429C0F0128010F0030C00F01B80F1
:10050000CCF1040CBCF1020F18BF00F8012BA8BFFE
:1005100020F8022BA1EB0C0100F00DB85FEAC17CC2
:1005200024BF00F8012B00F8012B48BF00F8012B75
:1005300070474FF0000200B51346944696462039A6
:1005400022BFA0E80C50A0E80C50B1F12001BFF48C
:10055000F7AF090728BFA0E80C5048BF0CC05DF8F2
:1005600004EB890028BF40F8042B08BF704748BF40
:1005700020F8022B11F0804F18BF00F8012B7047B4
:1005800010B503681C1404EB21449BB289B21944D2
:1005900094FBF2F302FB134394FBF2F401EB0343ED
:1005A00093FBF2F102FB113193FBF2F301E05B1ECE
:1005B00011440029FBDB016003EB044010BDF0B5E2
:1005C00004464FF0FF3585B00068049060680290E3
:1005D000A0680390E068019020690090666906F1C8
:1005E0008040B0F1004F7CD83C22002104A8FFF7E6
:1005F000C7FF3C22014602A8FFF7C2FF18220146AE
:1006000003A8FFF7BDFF411E40F2B55201A8FFF756
:10061000B7FF0C22074668460021FFF7B1FF414BA8
:1006200000EB8700304400267B4411E0511A019111
:100630000099491C0229009102D00C2908D105E03B
:10064000810705D00199491C019101E0401C0096E9
:100650000099019A595C9142E8DD0099012906D17F
:100660001C2A04D1810702D00221CDE90016A0F195
:1006700046018B293CD2DDE90061002202E09F5C4B
:10068000521C3944B242FADB012E02DD820700D04F
:10069000491E40F2B55340F26D16C21700EB92723C
:1006A00092105A4300F0030303FB062283070A4417
:1006B00000D1521E039E02EB4203049F06EBC303CC
:1006C000029EC3EB031306EB8303174E33441E1441
:1006D0009BB2C6EB0616C3EB0313B60007EB83030E
:1006E00000E005E006EB134666F31F43360C02D02C
:1006F000284605B0F0BD80C4029E40C4039E40C49D
:10070000019E761C44F80C6B009E44E902600720B1
:10071000521C92FBF0F600FB162084E823001846DA
:10072000E7E70000D52A0000A039CEFD70477047EA
:1007300070472DE9F0470D4699469246044600F170
:1007400024080168880604D5E06921F010012160C1
:1007500000E00120A84201DD471B00E00027A1695D
:100760007A1902EB0900081AA0612078C00602D4A9
:100770002046FFF745FD002608E0D4E901211AF8DC
:1007800006009047206A401C761C20624E45F4DB30
:100790002078C0060AD52046FFF732FD06E0D4E9EE
:1007A000012130209047206A401C2062381EA7F1AA
:1007B0000107F4DC07E0D4E9012118F805009047AF
:1007C000206A401C2062281EA5F10105F3DC2046AA
:1007D000FFF72CFD2078000602D50220BDE8F08747
:1007E0000120FBE701694A1C02610878704700B5E7
:1007F0008FB0CDE901310021059105497944CDE95A
:10080000031011466846FFF75FFD0FB000BD000002
:10081000E5FFFFFF0A6802F8010B0A6070477546A2
:1008200000F02CF8AE4605006946534620F007005C
:10083000854618B020B5FFF7BDFCBDE820404FF05D
:1008400000064FF000074FF000084FF0000B21F0BA
:100850000701AC46ACE8C009ACE8C009ACE8C00987
:10086000ACE8C0098D46704710B50446AFF3008070
:100870002046BDE81040FFF788BC000000487047E4
:100880000405002001491820ABBEFEE72600020047
:100890007047FEE7704772B6FEE7000070B5044689
:1008A00000F0F4F80546601C02D0044800780444C7
:1008B00000F0ECF8401BA042FAD370BD0800002005
:1008C0002DE9F84FDFF89C910024A9F1040B234691
:1008D0000F2709F1040AABF1040EBBE00125A54086
:1008E0002A40AA4276D1DFF880C14E68A6EB0C08F8
:1008F00066452BD00DDC032E34D005DC36B3012E3B
:1009000019D0022E2FD11BE0112E16D0122E2AD173
:1009100019E0B8F5881F19D006DCB8F5803F15D06E
:10092000B8F5801F1FD111E0B8F5001F0ED0B8F543
:10093000041F18D10AE0CB6815E0CB681B1D12E03C
:10094000CB6808330FE0CB680C330CE08B682BB11D
:10095000012B4FF0080303D0456104E0042302E0BB
:10096000056100E00023FF2A01D8064601E000F1FE
:1009700004064FEA840501D9A5F12005D6F80080C8
:1009800007FA05FC28EA0C0803FA05F548EA050809
:10099000C6F800804D68ED005BD5344DAE6946F079
:1009A0000106AE61AD6924F0030605F0010500956E
:1009B0002F4D06EB050CDCF80850A607360F07FA9A
:1009C00006F825EA0805DFF8AC80404503D14FF072
:1009D000000810E03DE0DFF8A080404502D14FF074
:1009E000010808E0DFF89480404502D14FF002088A
:1009F00001E04FF0030808FA06F848EA0508CCF8C9
:100A000008804D68D9F80060ED024D4601D51643C7
:100A100000E096432E604D68DAF80060AD0255465E
:100A200001D5164300E096432E604D68DBF8006068
:100A3000AD035D4601D5164300E096432E604D6838
:100A4000DEF80060ED03754601D5164300E09643DD
:100A50002E60641C0A6832FA04F57FF43FAFBDE8EB
:100A6000F88F00000804014000001110001002403F
:100A70000000014000080140000C0140001001404E
:100A80000AB1016170470904FBE700000148806872
:100A9000704700000800002070B5040025D094F8CD
:100AA0003D00002520B984F83C50204600F04EF966
:100AB000242084F83D002068016821F001010160D4
:100AC0002068016841F4004101602068016821F458
:100AD0000041016000F056FB4D4A6168914201D827
:100AE0004C4900E04C49884201D2012070BD4B497D
:100AF0002368B0FBF1F15E6826F03F060E435E60AE
:100B00006368934206D94FF4967359434FF47A734E
:100B1000B1FBF3F12368491C1E6A26F03F063143FE
:100B200019626168914210D84900401EB0FBF1F291
:100B3000521CC2F30B02042A01D2042022E0B0FBB3
:100B4000F1F0401CC0F30B001CE0A268F2B301EB13
:100B5000C10303EB0116431EB3FBF6F35B1C43F426
:100B600080431B0549D092B301EBC10202EB011196
:100B7000401EB0FBF1F0401CC0F30B0040F480407D
:100B800040F400402168CA694CF6FF739A43104351
:100B9000C861D4E9071001432068026822F0C0024E
:100BA00011430160D4E9030101432068826848F2DF
:100BB000FF339A4311438160D4E90501084321685A
:100BC000CA6822F0FF021043C86001E00EE016E0A0
:100BD0002068016841F0010101602564202084F84B
:100BE0003D00256384F83E50002070BD01EB4106B6
:100BF000431EB3FBF6F35B1CB3E70120C2E701EB36
:100C00004101401EB0FBF1F0401CC0F30B00B7E700
:100C1000A086010080841E0000093D0040420F00B4
:100C20002DE9F84F1F4690468A460446DDF8289085
:100C3000FFF72CFF054694F83D0020287FD11923AB
:100C4000012240492046009500F0AAFD002876D1F7
:100C500094F83C00012872D0012084F83C00206800
:100C60000168C90703D1016841F0010101602068F2
:100C7000016821F400610160212084F83D0010200A
:100C800084F83E0000262664C4F824806785608DC1
:100C900020852D48E0622B464A465146204600F00A
:100CA00005FD90B9206841698069009036E02A46C8
:100CB0004946204600F01AFE50B1206C042804D1A9
:100CC0002068016841F4007101600120BDE8F88FDF
:100CD000606A216800780861606A401C6062618D0A
:100CE000491E6185218D491E89B22185226853697B
:100CF000DB435B070BD451B100781061606A401C84
:100D00006062608D401E6085208D401E20852A46D1
:100D10004946204600F018FD0028CED1208D00283D
:100D2000C5D154F83D0B016841F4007101602020E9
:100D300004F81E09E67766770020C7E7FFE7022080
:100D4000C4E70000020010000000FFFF10B586B0ED
:100D50000021009101910291039100680F4988429E
:100D60001AD10F4CA06940F00800A061A069694643
:100D700000F008000490C020009012200190032091
:100D800003900848FFF79CFDE06940F40010E06123
:100D9000E06900F40010049006B010BD005400405B
:100DA00000100240000C01400248816802781144A2
:100DB0008160704708000020074810B5016841F0C5
:100DC00010010160032000F067F80F2000F006F822
:100DD00000F024F8002010BD0020024070B50D4D39
:100DE00004464FF47A712878B1FBF0F00A4909689B
:100DF000B1FBF0F000F02DFC48B9102C07D2002216
:100E00002146501E00F028F800206C6070BD0120C3
:100E100070BD000008000020140000200C4808B538
:100E2000816941F001018161816901F00101009155
:100E3000C16941F08051C161C06900F080500090EB
:100E40000448416821F0E06141F00071416008BD53
:100E50000010024000000140F0B40E4B1B680C462D
:100E6000C3F30223C3F10705042D00D90425191D7E
:100E7000072901D2002300E0DB1E012606FA05F156
:100E8000491E214099409E40761E16403143F0BCD9
:100E900001F0C9B90CED00E0064900F0070208684E
:100EA0004FF6FF03184040EA0220034A104308604F
:100EB000704700000CED00E00000FA050149012038
:100EC0000862704700000E4210B501460020234C16
:100ED000012922D0022939D010291DD16168226848
:100EE000D20119D51E48C1F38342C903805C0AD5DB
:100EF00061681B4AC1F34041921E515C194AB2FB22
:100F0000F1F1484301E0184948436168490203D4BC
:100F100040000321B0FBF1F010BD226AC2F30121B1
:100F2000012903D1920701D5C80310BD022905D1BB
:100F3000626A920702D549F6404010BD0329FCD1F0
:100F400021688903F9D54FF2244010BD00F02AF939
:100F50006168C1F38131491C4900DBE700100240A0
:100F6000C830000800127A0000093D002DE9F8435E
:100F700005460078354CC00754D0E0690026C00013
:100F800008D4E06940F08050E061E069012600F09B
:100F9000805000902E480168C90512D4016880462F
:100FA00041F480710160FFF771FD074605E000BF65
:100FB000FFF76CFDC01B642823D8D8F80000C005DB
:100FC000F6D5206A10F4407021D0A98801F4407150
:100FD00081421CD0206A1F49012220F440700A601F
:100FE00000220A602062C00711D0FFF74FFD0746BC
:100FF00041F2883808E000BFFFF748FDC11B4145BA
:1010000002D90320BDE8F883206A8007F4D5206A5E
:10101000696820F44070084320621EB1E06920F046
:101020008050E0612878800705D56068A96820F4C1
:101030004040084360602878C00605D56068E968CC
:1010400020F48000084360600020DBE700100240CD
:1010500000700040400442422DE9F0470F46050071
:1010600061D0434E306800F00700B84209D23068C2
:1010700020F0070038433060306800F00700B842C5
:1010800051D128683B4C810712D5400703D56068D1
:1010900040F4E06060602878000703D5606840F4A1
:1010A000605060606068A96820F0F00008436060EC
:1010B0002878C00728D06868012810D02168022845
:1010C00010D0890700292EDA616821F0030101435D
:1010D0006160FFF7DBFC804641F288390DE0216852
:1010E0008903EFE78901EDE7FFF7D0FCA0EB0801EA
:1010F000494502D90320BDE8F0876068696800F0BF
:101100000C00B0EB810FEFD1306800F00700B8425F
:101110000BD9306820F0070038433060306800F0A9
:101120000700B84201D00120E5E72878400705D53F
:101130006068E96820F4E060084360602878000790
:1011400006D56068296920F4605040EAC1006060FB
:1011500000F038F86168084AC1F30311515CC840D7
:101160000649086006480068FFF738FE0020C2E71D
:101170000020024000100240D83000081400002077
:101180000C0000200448054900684968044AC1F37E
:101190000221515CC840704714000020001002403A
:1011A000E83000080448054900684968044AC1F36A
:1011B000C221515CC840704714000020001002405A
:1011C000E83000080E4A51680E4801F00C03042B69
:1011D00011D0082B0FD10C48C1F38343C903C05C65
:1011E0000AD55168084AC1F34041921E515C054A34
:1011F0005043B0FBF1F0704704494843704700008A
:101200000010024000127A00B630000800093D00CC
:101210002DE9F84F040070D02078C04DC00749D0A8
:101220006868C0F38100012807D06868C0F38100B6
:10123000022809D16868C00306D52868800339D51B
:1012400060680028E7D035E06068B0F5803F0BD0DB
:1012500010B1B0F5A02F11D0286820F4803028609C
:10126000286820F4802002E0286840F4803028605C
:10127000606890B1FFF70AFC06460AE0286840F46F
:1012800080202860F0E700BFFFF700FC801B642887
:1012900073D828688003F7D50CE0FFF7F7FB064604
:1012A00005E000BFFFF7F2FB801B6428F0D8286838
:1012B0008003F7D420789A4E80074FF001094FF051
:1012C000000839D5686810F00C0F07D06868C0F3C3
:1012D0008100022809D16868C00306D42868800705
:1012E00014D52069012808D110E02069B0B1C6F8F2
:1012F0000090FFF7CBFB074605E00AE1FFF7C6FBCE
:10130000C01B0228C4D828688007F7D528686169FF
:1013100020F0F80040EAC10028600DE0C6F8008027
:10132000FFF7B4FB074604E0FFF7B0FBC01B022841
:1013300023D828688007F7D4207800072CD579486F
:10134000A169D9B1C0F80090FFF7A0FB074604E0FF
:10135000FFF79CFBC01B02280FD8686A8007F7D5EF
:1013600071484FF4FA510068B0FBF1F0009000BFF3
:101370000098411E0091FAD20EE080E0C0F8008093
:10138000FFF784FB074604E0FFF780FBC01B022841
:1013900075D8686A8007F7D42078400760D5E86977
:1013A0000027C00008D4E86940F08050E861E8698F
:1013B000012700F0805000905C480168C90513D4F3
:1013C0000168834641F480710160FFF75FFB82464C
:1013D00006E000BFFFF75AFBA0EB0A0064284ED8D6
:1013E000DBF80000C005F5D5E06801280AD008B197
:1013F000052813D0286A20F001002862286A20F00E
:10140000040002E0286A40F001002862E06841F22E
:10141000883B98B1FFF73AFB82460BE0286A40F020
:1014200004002862EEE700BFFFF730FBA0EB0A01E3
:1014300059455AD8286A8007F6D50CE0FFF726FBF5
:10144000824605E0FFF722FBA0EB0A0159454CD884
:10145000286A8007F6D41FB1E86920F08050E8615F
:10146000E06988B36968C1F38101022944D0022888
:10147000C6F8608004D0FFF709FB044638E034E08A
:10148000FFF704FB074604E0FFF700FBC01B022840
:101490002BD828688001F7D4206AB0F5803F05D1A9
:1014A0006868A16820F4003008436860D4E9080146
:1014B0000843696821F4741108436860C6F86090B5
:1014C000FFF7E4FA044606E025E000BFFFF7DEFA86
:1014D000001B022809D828688001F7D51BE000BF4F
:1014E000FFF7D4FA001B022802D90320BDE8F88FC9
:1014F00028688001F4D40EE00128F7D06868226AD9
:1015000000F48031914204D1616A00F47010884285
:1015100001D00120EAE70020E8E7000000100240C7
:10152000000042428004424214000020007000404B
:10153000024850F8210080B270470000006C004063
:10154000024800EB810091B201607047006C0040DE
:1015500070B5040003D0607C002610B105E00120C6
:1015600070BD2674204600F03DF8022060742046CD
:1015700000F052F8042550BB204600F0E2FC30BBDE
:101580002068416821F007014160A06820B114483B
:10159000016821F0010101601148001F0168A26883
:1015A00021F46071114301606068411C04D1012085
:1015B000FFF78AFC58B1401E2268C0F303419160D6
:1015C000216880B2C860204600F0D6FC08B165747E
:1015D000C5E7E67301206073A0736074002070BDDE
:1015E000306C004008B50068084988420DD1FFF70B
:1015F00065FC0748C16941F00061C161C0690549E6
:1016000000F0006000900120086008BD0028004044
:10161000001002403C04424270B504000AD0206829
:10162000416821F008014160FFF730FA05464FF4A8
:101630007A7608E0012070BDFFF728FA401BB0421F
:1016400001D9032070BD206840680007F4D5002050
:1016500070BD10B5401EB0F1807F01D3012010BDD8
:101660004FF0E02460610F21601700F0DCFD0020E6
:10167000A06107202061002010BDFEE701684A69D3
:10168000D24352050FD46FF480624A61002140F8C2
:10169000301F202242738173026942F0040202610A
:1016A000017301207047002070470000F8B5044620
:1016B000C06A1E460D461746082807D0012805D0E7
:1016C00010F5803F02D0206B122804D120680168F9
:1016D00041F480710160134600224FF00111204651
:1016E000009600F05DF840B120680068C00502D5A2
:1016F0004FF4007020640320F8BD2069B0F5804FDE
:101700000ED00620216800EAD51040F0F0000861F4
:1017100033463A460B49204600F08AF878B902E091
:1017200005F0FE0000E0E8B2216808610549334693
:101730003A46891F204600F07BF80028DCD00120C3
:10174000F8BD00000800010070B516460D460446BD
:101750001EE02046FFF792FF08B1012070BD681C13
:1017600016D0FFF793F9801BA84200D885B92068EE
:101770004069C04340070BD5002044F8300F2021BA
:101780006173A073216941F0200121612073E4E7B6
:1017900020684069C0434007DBD4002070BD0000D2
:1017A0002DE9F047984617460D460446C1F3074613
:1017B000DDF820902AE000BFB8F1FF3F26D0FFF708
:1017C00065F9A0EB0901414502D8B8F1000F1DD120
:1017D0002068012E16D0806925EA00000004000C64
:1017E00012D00020B84211D1002044F8300F20213F
:1017F0006173A073216941F02001216120730120F0
:10180000BDE8F0874069E7E70120EBE72068012E9B
:101810000AD0806925EA00000004000C06D00020F0
:10182000B842C9D00020EBE74069F3E70120F7E7B1
:101830002DE9F047984616460D4604464FF000093C
:101840004FF0200AC1F3074723E020684069C043F6
:10185000400515D42068016841F4007101602168D9
:101860006FF480604861C4F8309084F83DA084F83B
:101870003E90216C41F00401216484F83C9021E009
:10188000701C06D0FFF702F9A0EB0800B04203D8A5
:1018900016B1012F1FD021E02068012F15D08069DB
:1018A00025EA00000004000C18D000BF44F8309F67
:1018B00084F80DA084F80E90216941F02001216187
:1018C00084F80C900120BDE8F087406925EA00000B
:1018D0000004000CEAD12068406901E020688069BA
:1018E00025EA00000004000CAFD1ECE770B5164605
:1018F0000D4604461EE02046FFF7C0FE08B1012059
:1019000070BD681C16D0FFF7C1F8801BA84200D834
:1019100085B920684069C04300060BD5002044F813
:10192000300F20216173A073216941F020012161F2
:101930002073E4E720684069C0430006DBD4002040
:1019400070BD000010B58CB001210E48FFF7F0FD0E
:1019500042F23334A04212D00A48FFF7F9FD08B131
:10196000FEF799FF2C2208496846FEF78EFD68466F
:1019700000F00CF8224601210248FFF7E1FD0CB00F
:1019800010BD00006C0000208830000810B5FEF784
:1019900016FE0146BDE81040014800F0C7BB00003C
:1019A0006C00002030B585B00020009001900290BE
:1019B00003901A48816941F010018161816901F049
:1019C00010010491816941F020018161816901F078
:1019D00020010491816941F004018161816901F074
:1019E00004010491816941F00801816180690C4D15
:1019F00000F008004FF400540490002221462846CD
:101A0000FFF73EF801210220CDE90210CDE90041A7
:101A100069462846FEF754FF05B030BD001002406D
:101A2000001001400D4810B50B4901600C494160A0
:101A300000214FF480428160C0E90312416181615D
:101A4000C1610162FFF728F8002803D0BDE810400B
:101A5000FEF721BF10BD0000005400401800002018
:101A6000A08601000548044901604FF0FF31416044
:101A70004FF4807181607047002800406C000020A6
:101A8000FEE7FEE72DE9F84300241E460F46804698
:101A90008518DDF820900AE03819C3B2C1B2EAB265
:101AA0004046CDF8009000F007F8641CE4B2B44260
:101AB000F2D3BDE8F88300002DE9F84F044617463D
:101AC0003D481E460D46BC4210D1B5420AD945706C
:101AD0002E461D4606E0294620460A9A00F0F4F9F3
:101AE0006D1CEDB2B542F6D9BDE8F88FB5420FD105
:101AF000BC420AD944702746144606E029462046CF
:101B00000A9A00F0E1F9641CE4B2BC42F6D9EBE7B2
:101B1000381B711B002801DD012300E000234FF07A
:101B2000FF3202EB43030093002901DD012300E0B3
:101B30000023A846002502EB430B002800DA4042B0
:101B40008146002900DA49428A46D14516DC2FE059
:101B500008F0FF01E0B20A9A00F0B6F905EB0A00BE
:101B600005B2B9EB450F06DC08EB0B000FFA80F865
:101B7000A5EB090005B20098204404B2BC42E7D1AD
:101B8000B2E700BF08F0FF01E0B20A9A00F09CF94A
:101B900005EB090005B2BAEB450F05DC00982044BF
:101BA00004B2A5EB0A0005B208EB0B000FFA80F8AF
:101BB000B045E7D198E70000020000202DE9F84188
:101BC0001C46079E851888460746EAB20B460096D3
:101BD000FFF772FF4444E3B2EAB2E1B2384600963E
:101BE000FFF76AFF3A46E3B2414610460096FFF718
:101BF00063FFE3B2EAB2E8B241460096FFF75CFF4A
:101C0000BDE8F88110B5AE2000F096F8202000F075
:101C100093F8102000F090F8B02000F08DF8C82064
:101C200000F08AF8002000F087F8102000F084F817
:101C3000402000F081F8812000F07EF8DF2000F0E5
:101C40007BF8A12000F078F8A62000F075F8A82015
:101C500000F072F83F2000F06FF8A42000F06CF85C
:101C6000D32000F069F8002000F066F8D52000F0DD
:101C700063F8F02000F060F8D92000F05DF8222031
:101C800000F05AF8DA2000F057F8122000F054F86B
:101C9000DB2000F051F8202000F04EF88D2000F0FD
:101CA0004BF8142000F048F800F008F800F024F990
:101CB000BDE81040AF2000F03FB800004FF4806155
:101CC0000148FEF714BC0000010100203CB51C785F
:101CD000059D203ACDE900455D68E41D5B78E40888
:101CE000544303FB045200F087F83CBD2DE9F84152
:101CF0001E46154688460446079F09E0334641467E
:101D000020460097FFF7E2FF70786D1C2044C4B2B4
:101D10002A78002AF2D1BDE8F881000008B54FF01A
:101D2000FF3200920B46024678210248FEF778FF08
:101D300008BD000018000020024948700221014837
:101D4000FFF7ECBF040000202DE9FC41804607208E
:101D5000CDE9000301F00704CD08164602FA04F0AD
:101D60001F46C2B223464146284600F089F8002C9F
:101D70000CD0601EC0B2CDE90007C4F1080026FAFD
:101D800000F2681C0023414600F07AF8BDE8FC81AF
:101D90002DE9FC4301F007061446CD08984681461C
:101DA00001F0070106EB080204FA01F0099F082A76
:101DB00016D90721CDE90017C2B233464946284655
:101DC00000F05EF808EB06000938C0B2CDE9000764
:101DD000C6F1080024FA00F2681C0023494607E017
:101DE000521ED1B2CDE90017C2B233464946284649
:101DF00000F046F8BDE8FC832DE9FF4F82B01D4698
:101E00000F989346C70800F0070088460026019007
:101E100018E0029800240BEB060A00EB06090DE01F
:101E200004FB05F0109B10F80A2008EBC400C1B2B7
:101E300009F0FF00FFF788FF641CE4B2BC42EFD357
:101E4000761CF6B2AE42E4D30198002815D005FB0B
:101E500007F6002408EBC7070DE010980090311931
:101E600002981BF801202044F9B2C0B2019BFFF791
:101E70008FFF641CE4B2AC42EFD306B0BDE8F08F34
:101E8000F0B50828DDE9056419D2802917D20CB114
:101E9000D243D2B2FF25761C05FA06F6C3F1080339
:101EA000084F46EA0204DD4007EBC017044B785C9C
:101EB000B2432C43AA4320401A7010437854F0BD1B
:101EC000020000200101002030B580280ED24029F8
:101ED0000CD201F007040123064DA340C90805EB0D
:101EE000C111002A0A5C02D09A430A5430BD1A4339
:101EF000FBE700000101002070B5104D40200024D8
:101F0000287005F1810600BF04F1B000C0B2FFF7F0
:101F100013FF0020FFF710FF1020FFF70DFF06EB67
:101F2000C4118022681CFEF76BFA81210348FFF779
:101F3000F5FE641CE4B2082CE6D370BD80000020DE
:101F4000704770B50446FEF7A1FD05464FF47A765A
:101F500006E0FEF79BFD401BB04201D9032070BD97
:101F6000206840688006F4D52068416841F010017F
:101F70004160002070BD000070B5044600684168F3
:101F800021F010014160FEF781FD05464FF47A769D
:101F900007E000BFFEF77AFD401BB04201D90320E5
:101FA00070BD206840688006F4D5002070BD000038
:101FB0002DE9FE4F054632A007C88DE8070000F066
:101FC0008DF8DFF8C8800746B0FBF8F4A860304809
:101FD0000188A1422DD0048040F2B2764FF4B77A46
:101FE0004FF4B6790CE0304600F08CF820B154453F
:101FF00008D3A4F5B77401E0A4F26D14761CB6B250
:102000004C45F0D82E800026E9460CE0288800F0E8
:1020100079F808B1012E2ED019F80600A04204D894
:10202000241A761CB6B21C2CF0D2761CAE70641C3E
:10203000EC70B7FBF8F108FB11704FF46161B0FB75
:10204000F1F26A71B0FBF1F201FB12033C22B3FB27
:10205000F2F3AB71B0FBF1F301FB1300B0FBF2F153
:1020600002FB1100E871EA78A978288800F012F8DC
:102070002871BDE8FE8F1D2CD7D31D3CD1E7000091
:102080001F1C1F1E1F1E1F1F1E1F1E1F8051010011
:102090000000002010B5032903D20C31401EC9B244
:1020A00080B24B1C02EB410103EB43030524B3FB5D
:1020B000F4F36422B0FBF2F21944014401EB900105
:1020C000891A4FF4C872B0FBF2F008440721401C93
:1020D00090FBF1F201FB1200C0B210BD0849086884
:1020E0000B1D80B21A68096892B289B2884203D087
:1020F000186861F31F40704742EA004070470000D3
:1021000018280040810705D16421B0FBF1F201FBE2
:10211000120141B94FF4C871B0FBF1F201FB12009A
:1021200008B1002070470120704700002DE9F04100
:102130000F4604460025FEF7A9FC06464FF47A78C0
:1021400005E000BFFEF7A2FC801B40451DD82068BB
:1021500040688006F6D52068416841F01001416072
:102160002168380C88612168B8B2C861206841686C
:1021700021F010014160FEF789FC0646474606E063
:10218000FEF784FC801BB84201D9012503E02068DA
:1021900040688006F4D52846BDE8F0817047FEF718
:1021A00003BE70B594B028216846FEF7C2F9142129
:1021B0000AA8FEF7BEF900250F9509200124109505
:1021C0000090119512954FF4803004940694CDE957
:1021D00001050226CDE907604FF4E010099068463A
:1021E000FFF716F808B172B6FEE70F20CDE90A0630
:1021F0004FF48060CDE90C5002210AA80E95FEF73D
:102200002BFF08B172B6FEE74FF40070CDE90F4026
:102210000FA8FEF7ABFE002801D072B6FEE714B09F
:1022200070BD7047FEE70907090E002804DB00F1C6
:10223000E02080F80014704700F00F0000F1E0206B
:1022400080F8141D704730380A2801D201207047E9
:1022500000207047ACB04822754907A8FEF715F971
:10226000FEF7AAFDFFF79DFFFFF79CFBFFF7DAFBE8
:10227000FFF7F8FB1420FEF711FBFFF7C3FCFFF795
:102280001DFDFFF75FFBDFF8ACA1DFF8ACB101A8E3
:10229000FFF78EFE9DF80A709DF809504FF46160BB
:1022A000C7EB07119DF80B40684300EB8100204409
:1022B00004EB810600F0D0F960492A9000F0EAF8BA
:1022C000514600F0DDF900F0A7F900F0FF093046B3
:1022D00000F0C2F95A49299000F0DCF8514600F0AC
:1022E000CFF900F099F900F0FF08204600F0B4F9AA
:1022F000594600F0CFF8514600F0C2F900F08CF9D1
:10230000C6B23B462A464FA119A80094FDF764FFC8
:102310009DF8070000909DF80630BDF804204DA1FF
:1023200021A8FDF759FFFFF7C9FC00244D4B21AA56
:10233000322114200094FFF7D9FC4B4B19AA00213D
:1023400020200094FFF7D2FC0623332214210D2015
:102350000094FFF733FC454D2A98294600F090F988
:10236000364900F097F800F057F9C2B2052315215D
:102370000D200094FFF786FB4A463DA104A8FDF717
:102380002BFF384B04AA14214A200094FFF7AEFC1F
:10239000062333221C210D200094FFF70FFC294651
:1023A000299800F06DF9264900F074F800F034F92E
:1023B000C2B205231D210D200094FFF763FB4246A6
:1023C0002EA104A8FDF708FF264B04AA1C214A20D1
:1023D0000094FFF78BFC0623332224210D20009468
:1023E000FFF7ECFB9DF80B0000F036F9294600F0F2
:1023F00047F9594600F04EF800F00EF9C2B2052335
:1024000025210D200094FFF73DFB32461EA104A8B4
:10241000FDF7E2FE134B04AA24214A200094FFF7A3
:1024200065FCFFF769FD4FF47A70FEF737FA2EE787
:10243000182800080000C8420000704200C0A847E9
:1024400000006145253032643A253032643A253047
:102450003264000025642D253032642D253032642D
:1024600000000000882A00088030000800004C426C
:102470004461793A2575252500000000486F757282
:102480003A257525250000004D696E3A25752525EC
:10249000000000004FF47F0C1CEAD0121EBF1CEAA3
:1024A000D11392EA0C0F93EA0C0F00F0858090EAAA
:1024B000010F48BF42F4807240F4000C41F4000068
:1024C0002CF07F4120F07F4000B58142A2EB030257
:1024D0000FF2081CACEB504EC0F100009EF800E07B
:1024E0004FEA4E0E00FB0EFC38BF49004FEA2C1C91
:1024F00002F5FA020CFB0EF34FEACE1E4FEA112C46
:102500004FEAC1210EEB635E42EB22420EFB0CFC54
:102510004FEA1C5300FB03114FEA112C4FEA013123
:102520000EFB0CFC4FEADC4C00FB0C11C14228BF37
:1025300009184CEB03335DF804EB10EB410143EB5E
:10254000C250B2F57C0F38BF704729D512F0F00F9A
:102550001CBF00F1C04000F0004070470081828342
:102560008485868788898B8C8D8E8F9192939596A2
:1025700097999A9C9D9FA0A2A3A5A7A8AAACAEB02C
:10258000B2B3B5B7B9BCBEC0C2C5C7C9CCCED1D431
:10259000D7D9DCDFE2E6E9ECF0F3F7FAFE00000061
:1025A0004FEA400C0CF1807CBCF17E4F28BF704795
:1025B000B0F1C04000F02BB990EA010F0CEAD11342
:1025C00048BF42F48072624538BF634507D213F4B6
:1025D0007F0F16D080EA010000F00040704710B570
:1025E00000F0CFF8097EFC3E00F005B880EA01005B
:1025F00000F00040704780EA010000F0004000F069
:1026000006B912F47F0F04BF0248704780EA010048
:1026100000F0FDB80000C07FC10DD1F19E0206DBC5
:102620004FEA002343F0004323FA02F070470042D0
:1026300007D54FEA4001B1F1FE4F02D24FF0000042
:10264000704710B500F09DF8499224800020704733
:102650006FEA200070470000B0FA80F310FA03F22E
:10266000C3F19D030AD0D90501EB1220530638BFF0
:10267000704700F1010008BF20F001007047000022
:102680004FF47F0C1CEAD0121EBF1CEAD11392EA51
:102690000C0F93EA0C0F00F0478090EA010F48BF3F
:1026A00042F480724FF0004C4CEA00204CEA0121C9
:1026B00002EB0302A0FB0113A2F50002002918BFE0
:1026C00043F001035B0028BF4FEA330342EB224291
:1026D0005FEA132C4CEBC2502EBFBCEB436FB2F53C
:1026E0007C0F70474FEA036CBCF1004F08BF20F02D
:1026F0000100B2F57C0F38BF70470BD582F0FF02A6
:1027000012F5803FC8BF704700F1C040D8BF00F04D
:102710000040704700F5000C5FEA4C0C48BF704762
:10272000B0F1C04000F073B890EA010F0CEAD11389
:1027300048BF42F48072624538BF634504D280EAE4
:10274000010000F00040704710B500F01AF800BF1B
:102750008900013E00F007B800F009B85FEA410CBB
:102760005FEA1C6C08D080EA010000F050B85FEA14
:10277000400C5FEA1C6CF6D14FF00040A0F58000E1
:1027800070470EF1020E2EF0030E5EF8044B244249
:1027900004D44FEA4102B2F17F4F11D84FEA40030F
:1027A000B3F17F4F0CD80ED14FEAD07CB2F17F4FFE
:1027B0000CEB4C0C0CF1020C08BF4CEBD17C04E090
:1027C0004FF0080C01E04FEAD17C0CEB4C0324FAEB
:1027D00003F404F00704B4F1040C06D20EEB840CED
:1027E000BDE810404CF0010C6047DFE80CF0070832
:1027F00002024FF00040A0F5800010BD08464200E4
:1028000018BFD2F1807288BF00F0004010BDFF21D8
:1028100041EAD050C005704753756E64617900007D
:1028200000004D6F6E64617900000000547565739F
:102830006461790000005765646E657364617900B6
:1028400054687572736461790000467269646179D5
:10285000000000005361747572646179000000002B
:10286000000000000000002F00000000070007002B
:1028700000147F147F1400242A7F2A120062640847
:1028800013230036495522500000050300000000C4
:102890001C224100000041221C000014083E0814C4
:1028A0000008083E0808000000A0600000080808B2
:1028B0000808000060600000002010080402003ECC
:1028C0005149453E0000427F400000426151494667
:1028D000002141454B31001814127F100027454557
:1028E0004539003C4A494930000171090503003669
:1028F0004949493600064949291E0000363600007C
:102900000000563600000008142241000014141480
:10291000141400004122140800020151090600327B
:102920004959513E007C1211127C007F49494936B9
:10293000003E41414122007F4141221C007F494924
:102940004941007F09090901003E4149497A007F58
:102950000808087F0000417F4100002040413F01FE
:10296000007F08142241007F40404040007F020C5D
:10297000027F007F0408107F003E4141413E007FFE
:1029800009090906003E4151215E007F09192946C7
:102990000046494949310001017F0101003F4040A3
:1029A000403F001F2040201F003F4038403F006351
:1029B0001408146300070870080700615149454373
:1029C00000007F41410000552A552A550000414131
:1029D0007F0000040201020400404040404000002B
:1029E00001020400002054545478007F48444438C5
:1029F00000384444442000384444487F003854544C
:102A0000541800087E0901020018A4A4A47C007FC9
:102A1000080404780000447D4000004080847D006C
:102A2000007F102844000000417F4000007C041813
:102A30000478007C0804047800384444443800FCDE
:102A4000242424180018242418FC007C08040408FA
:102A500000485454542000043F444020003C40406F
:102A6000207C001C2040201C003C4030403C0044A6
:102A700028102844001CA0A0A07C004464544C44AE
:102A80001414141414140000080600005E28000832
:102A90000000000000000000000000000000000036
:102AA000000000F8000000000000003330000000CB
:102AB00000100C06100C06000000000000000000D2
:102AC00040C07840C0784000043F04043F04040044
:102AD000007088FC08300000001820FF211E000054
:102AE000F008F000E018000000211C031E211E0069
:102AF00000F00888700000001E21232419272110EF
:102B000010160E0000000000000000000000000091
:102B1000000000E018040200000000071820400038
:102B200000020418E0000000004020180700000028
:102B3000404080F0804040000202010F010202008C
:102B4000000000F0000000000101011F0101010070
:102B5000000000000000000080B0700000000000D5
:102B6000000000000000000000010101010101015E
:102B700000000000000000000030300000000000F5
:102B800000000000806018040060180601000000CA
:102B900000E010080810E000000F102020100F00C7
:102BA000001010F8000000000020203F202000004E
:102BB00000700808088870000030282422213000A6
:102BC00000300888884830000018202020110E00AE
:102BD0000000C02010F8000000070424243F240057
:102BE00000F80888880808000019212020110E002C
:102BF00000E0108888180000000F112020110E003E
:102C000000380808C83808000000003F0000000035
:102C10000070880808887000001C222121221C00F6
:102C200000E010080810E0000000312222110F001F
:102C3000000000C0C00000000000003030000000B4
:102C40000000008000000000000080600000000024
:102C5000000080402010080000010204081020003D
:102C60004040404040404000040404040404040088
:102C7000000810204080000000201008040201001D
:102C8000007048080808F00000000030360100001D
:102C9000C030C828E810E0000718272423140B00D0
:102CA0000000C038E0000000203C2302022738204A
:102CB00008F8888888700000203F202020110E002E
:102CC000C030080808083800071820202010080025
:102CD00008F808080810E000203F202020100F000E
:102CE00008F88888E8081000203F202023201800DA
:102CF00008F88888E8081000203F20000300000042
:102D0000C03008080838000007182020221E0200E2
:102D100008F808000008F808203F210101213F20A1
:102D2000000808F8080800000020203F20200000CC
:102D300000000808F8080800C08080807F000000BC
:102D400008F888C028180800203F200126382000F5
:102D500008F8080000000000203F2020202030005C
:102D600008F8F800F8F80800203F003F003F200076
:102D700008F830C00008F808203F200007183F007E
:102D8000E01008080810E0000F10202020100F00AD
:102D900008F808080808F000203F210101010000A0
:102DA000E01008080810E0000F18242438504F00E5
:102DB00008F8888888887000203F2000030C3020A5
:102DC00000708808080838000038202121221C00E3
:102DD000180808F8080818000000203F200000002C
:102DE00008F808000008F808001F202020201F0015
:102DF0000878880000C83808000007380E01000075
:102E0000F80800F80008F800033C0700073C03003E
:102E1000081868808068180820302C03032C3020A4
:102E20000838C800C83808000000203F2000000013
:102E300010080808C838080020382621202018006B
:102E4000000000FE020202000000007F404040003F
:102E5000000C30C000000000000000010638C00077
:102E600000020202FE000000004040407F0000001F
:102E70000000040202020400000000000000000044
:102E80000000000000000000808080808080808042
:102E9000000202040000000000000000000000002A
:102EA00000008080808000000019242222223F2020
:102EB00008F8008080000000003F112020110E0063
:102EC0000000008080800000000E112020201100F2
:102ED000000000808088F800000E112020103F20A4
:102EE0000000808080800000001F22222222130028
:102EF000008080F0888888180020203F2020000073
:102F00000000808080808000006B94949493600027
:102F100008F8008080800000203F210000203F2032
:102F200000809898000000000020203F2020000032
:102F3000000000809898000000C08080807F000022
:102F400008F8000080808000203F24022D302000FF
:102F5000000808F8000000000020203F20200000AA
:102F60008080808080808000203F20003F20003FC4
:102F70008080008080800000203F210000203F20D2
:102F80000000808080800000001F202020201F0083
:102F9000808000808000000080FFA12020110E00B2
:102FA0000000008080808000000E112020A0FF80A3
:102FB000808080008080800020203F212000010050
:102FC00000008080808080000033242424241900A5
:102FD000008080E0808000000000001F20200000B2
:102FE0008080000000808000001F202020103F20F3
:102FF000808080000080808000010E300806010083
:1030000080800080008080800F300C030C300F0027
:1030100000808000808080000020312E0E31200052
:10302000808080000080808080818E701806010082
:1030300000808080808080000021302C22213000A0
:1030400000000000807C020200000000003F4040C1
:1030500000000000FF00000000000000FF00000072
:103060000002027C800000000040403F00000000A1
:10307000000601010202040400000000000000003C
:1030800010080000902A00081E0000002D0000001B
:103090000F00000015000000060000007D00000089
:1030A0000000000000000000000000000000000020
:1030B00000000000010202030405060708090A0BCC
:1030C0000C0D0E0F1010010202030405060708097B
:1030D0000A0B0C0D0E0F1010000000000000000085
:1030E00001020304060708090000000001020304AE
:1030F00004000008000000000000000200010000C1
:10310000101F1D1F1E1F1E1F1F1E1F1E1F00000041
:1031100030310008000000201800000028010008DD
:103120004831000818000020500B0000440100083E
:10313000000000000000000001000000100000007E
:083140000000000000127A00FB
:04000005080000ED02
:00000001FF
